{
	"contracts/OrderProvider.sol": {
		"OrderProvider": {
			"abi": [
				{
					"inputs": [],
					"stateMutability": "nonpayable",
					"type": "constructor"
				},
				{
					"anonymous": false,
					"inputs": [
						{
							"indexed": true,
							"internalType": "address",
							"name": "previousOwner",
							"type": "address"
						},
						{
							"indexed": true,
							"internalType": "address",
							"name": "newOwner",
							"type": "address"
						}
					],
					"name": "OwnershipTransferred",
					"type": "event"
				},
				{
					"anonymous": false,
					"inputs": [
						{
							"indexed": false,
							"internalType": "uint16",
							"name": "orderId",
							"type": "uint16"
						},
						{
							"indexed": false,
							"internalType": "uint256",
							"name": "amount",
							"type": "uint256"
						},
						{
							"indexed": false,
							"internalType": "address",
							"name": "_address",
							"type": "address"
						}
					],
					"name": "TransferNative",
					"type": "event"
				},
				{
					"anonymous": false,
					"inputs": [
						{
							"indexed": false,
							"internalType": "uint16",
							"name": "orderId",
							"type": "uint16"
						},
						{
							"indexed": false,
							"internalType": "address",
							"name": "tokenAddress",
							"type": "address"
						},
						{
							"indexed": false,
							"internalType": "uint256",
							"name": "amount",
							"type": "uint256"
						},
						{
							"indexed": false,
							"internalType": "address",
							"name": "_address",
							"type": "address"
						}
					],
					"name": "TransferStableCoin",
					"type": "event"
				},
				{
					"stateMutability": "payable",
					"type": "fallback"
				},
				{
					"inputs": [],
					"name": "centralWallet",
					"outputs": [
						{
							"internalType": "address",
							"name": "",
							"type": "address"
						}
					],
					"stateMutability": "view",
					"type": "function"
				},
				{
					"inputs": [
						{
							"internalType": "uint8",
							"name": "stableCoinId",
							"type": "uint8"
						}
					],
					"name": "emergencyTokenWithdraw",
					"outputs": [],
					"stateMutability": "nonpayable",
					"type": "function"
				},
				{
					"inputs": [],
					"name": "owner",
					"outputs": [
						{
							"internalType": "address",
							"name": "",
							"type": "address"
						}
					],
					"stateMutability": "view",
					"type": "function"
				},
				{
					"inputs": [],
					"name": "renounceOwnership",
					"outputs": [],
					"stateMutability": "nonpayable",
					"type": "function"
				},
				{
					"inputs": [
						{
							"internalType": "uint8",
							"name": "id",
							"type": "uint8"
						},
						{
							"internalType": "address",
							"name": "_address",
							"type": "address"
						}
					],
					"name": "setupStableCoin",
					"outputs": [],
					"stateMutability": "nonpayable",
					"type": "function"
				},
				{
					"inputs": [
						{
							"internalType": "uint8",
							"name": "",
							"type": "uint8"
						}
					],
					"name": "stableCoins",
					"outputs": [
						{
							"internalType": "address",
							"name": "",
							"type": "address"
						}
					],
					"stateMutability": "view",
					"type": "function"
				},
				{
					"inputs": [
						{
							"internalType": "uint16",
							"name": "orderId",
							"type": "uint16"
						}
					],
					"name": "transferNative",
					"outputs": [],
					"stateMutability": "payable",
					"type": "function"
				},
				{
					"inputs": [
						{
							"internalType": "address",
							"name": "newOwner",
							"type": "address"
						}
					],
					"name": "transferOwnership",
					"outputs": [],
					"stateMutability": "nonpayable",
					"type": "function"
				},
				{
					"inputs": [
						{
							"internalType": "uint8",
							"name": "stableCoinId",
							"type": "uint8"
						},
						{
							"internalType": "uint16",
							"name": "orderId",
							"type": "uint16"
						},
						{
							"internalType": "uint256",
							"name": "amount",
							"type": "uint256"
						}
					],
					"name": "transferStableCoin",
					"outputs": [],
					"stateMutability": "nonpayable",
					"type": "function"
				},
				{
					"inputs": [
						{
							"internalType": "address",
							"name": "_address",
							"type": "address"
						}
					],
					"name": "updateCentralWallet",
					"outputs": [],
					"stateMutability": "nonpayable",
					"type": "function"
				},
				{
					"stateMutability": "payable",
					"type": "receive"
				}
			],
			"devdoc": {
				"kind": "dev",
				"methods": {
					"owner()": {
						"details": "Returns the address of the current owner."
					},
					"renounceOwnership()": {
						"details": "Leaves the contract without owner. It will not be possible to call `onlyOwner` functions. Can only be called by the current owner. NOTE: Renouncing ownership will leave the contract without an owner, thereby disabling any functionality that is only available to the owner."
					},
					"transferOwnership(address)": {
						"details": "Transfers ownership of the contract to a new account (`newOwner`). Can only be called by the current owner."
					}
				},
				"version": 1
			},
			"evm": {
				"assembly": "    /* \"contracts/OrderProvider.sol\":176:2040  contract OrderProvider is Ownable {... */\n  mstore(0x40, 0x80)\n    /* \"contracts/OrderProvider.sol\":482:542  constructor () {... */\n  callvalue\n  dup1\n  iszero\n  tag_1\n  jumpi\n  0x00\n  dup1\n  revert\ntag_1:\n  pop\n    /* \"@openzeppelin/contracts/access/Ownable.sol\":936:968  _transferOwnership(_msgSender()) */\n  tag_5\n    /* \"@openzeppelin/contracts/access/Ownable.sol\":955:967  _msgSender() */\n  tag_6\n    /* \"@openzeppelin/contracts/access/Ownable.sol\":955:965  _msgSender */\n  shl(0x20, tag_7)\n    /* \"@openzeppelin/contracts/access/Ownable.sol\":955:967  _msgSender() */\n  0x20\n  shr\n  jump\t// in\ntag_6:\n    /* \"@openzeppelin/contracts/access/Ownable.sol\":936:954  _transferOwnership */\n  shl(0x20, tag_8)\n    /* \"@openzeppelin/contracts/access/Ownable.sol\":936:968  _transferOwnership(_msgSender()) */\n  0x20\n  shr\n  jump\t// in\ntag_5:\n    /* \"contracts/OrderProvider.sol\":524:534  msg.sender */\n  caller\n    /* \"contracts/OrderProvider.sol\":508:521  centralWallet */\n  0x01\n  0x00\n    /* \"contracts/OrderProvider.sol\":508:534  centralWallet = msg.sender */\n  0x0100\n  exp\n  dup2\n  sload\n  dup2\n  0xffffffffffffffffffffffffffffffffffffffff\n  mul\n  not\n  and\n  swap1\n  dup4\n  0xffffffffffffffffffffffffffffffffffffffff\n  and\n  mul\n  or\n  swap1\n  sstore\n  pop\n    /* \"contracts/OrderProvider.sol\":176:2040  contract OrderProvider is Ownable {... */\n  jump(tag_10)\n    /* \"@openzeppelin/contracts/utils/Context.sol\":640:736  function _msgSender() internal view virtual returns (address) {... */\ntag_7:\n    /* \"@openzeppelin/contracts/utils/Context.sol\":693:700  address */\n  0x00\n    /* \"@openzeppelin/contracts/utils/Context.sol\":719:729  msg.sender */\n  caller\n    /* \"@openzeppelin/contracts/utils/Context.sol\":712:729  return msg.sender */\n  swap1\n  pop\n    /* \"@openzeppelin/contracts/utils/Context.sol\":640:736  function _msgSender() internal view virtual returns (address) {... */\n  swap1\n  jump\t// out\n    /* \"@openzeppelin/contracts/access/Ownable.sol\":2426:2613  function _transferOwnership(address newOwner) internal virtual {... */\ntag_8:\n    /* \"@openzeppelin/contracts/access/Ownable.sol\":2499:2515  address oldOwner */\n  0x00\n    /* \"@openzeppelin/contracts/access/Ownable.sol\":2518:2524  _owner */\n  dup1\n  0x00\n  swap1\n  sload\n  swap1\n  0x0100\n  exp\n  swap1\n  div\n  0xffffffffffffffffffffffffffffffffffffffff\n  and\n    /* \"@openzeppelin/contracts/access/Ownable.sol\":2499:2524  address oldOwner = _owner */\n  swap1\n  pop\n    /* \"@openzeppelin/contracts/access/Ownable.sol\":2543:2551  newOwner */\n  dup2\n    /* \"@openzeppelin/contracts/access/Ownable.sol\":2534:2540  _owner */\n  0x00\n  dup1\n    /* \"@openzeppelin/contracts/access/Ownable.sol\":2534:2551  _owner = newOwner */\n  0x0100\n  exp\n  dup2\n  sload\n  dup2\n  0xffffffffffffffffffffffffffffffffffffffff\n  mul\n  not\n  and\n  swap1\n  dup4\n  0xffffffffffffffffffffffffffffffffffffffff\n  and\n  mul\n  or\n  swap1\n  sstore\n  pop\n    /* \"@openzeppelin/contracts/access/Ownable.sol\":2597:2605  newOwner */\n  dup2\n    /* \"@openzeppelin/contracts/access/Ownable.sol\":2566:2606  OwnershipTransferred(oldOwner, newOwner) */\n  0xffffffffffffffffffffffffffffffffffffffff\n  and\n    /* \"@openzeppelin/contracts/access/Ownable.sol\":2587:2595  oldOwner */\n  dup2\n    /* \"@openzeppelin/contracts/access/Ownable.sol\":2566:2606  OwnershipTransferred(oldOwner, newOwner) */\n  0xffffffffffffffffffffffffffffffffffffffff\n  and\n  0x8be0079c531659141344cd1fd0a4f28419497f9722a3daafe3b4186f6b6457e0\n  mload(0x40)\n  mload(0x40)\n  dup1\n  swap2\n  sub\n  swap1\n  log3\n    /* \"@openzeppelin/contracts/access/Ownable.sol\":2489:2613  {... */\n  pop\n    /* \"@openzeppelin/contracts/access/Ownable.sol\":2426:2613  function _transferOwnership(address newOwner) internal virtual {... */\n  pop\n  jump\t// out\n    /* \"contracts/OrderProvider.sol\":176:2040  contract OrderProvider is Ownable {... */\ntag_10:\n  dataSize(sub_0)\n  dup1\n  dataOffset(sub_0)\n  0x00\n  codecopy\n  0x00\n  return\nstop\n\nsub_0: assembly {\n        /* \"contracts/OrderProvider.sol\":176:2040  contract OrderProvider is Ownable {... */\n      mstore(0x40, 0x80)\n      jumpi(tag_1, lt(calldatasize, 0x04))\n      shr(0xe0, calldataload(0x00))\n      dup1\n      0xa18f6fb5\n      gt\n      tag_13\n      jumpi\n      dup1\n      0xa18f6fb5\n      eq\n      tag_8\n      jumpi\n      dup1\n      0xc2081295\n      eq\n      tag_9\n      jumpi\n      dup1\n      0xea0e2d6a\n      eq\n      tag_10\n      jumpi\n      dup1\n      0xf2fde38b\n      eq\n      tag_11\n      jumpi\n      dup1\n      0xf7745a63\n      eq\n      tag_12\n      jumpi\n      jump(tag_2)\n    tag_13:\n      dup1\n      0x1edbe00e\n      eq\n      tag_3\n      jumpi\n      dup1\n      0x262f8e86\n      eq\n      tag_4\n      jumpi\n      dup1\n      0x715018a6\n      eq\n      tag_5\n      jumpi\n      dup1\n      0x7455bf54\n      eq\n      tag_6\n      jumpi\n      dup1\n      0x8da5cb5b\n      eq\n      tag_7\n      jumpi\n      jump(tag_2)\n    tag_1:\n      jumpi(tag_2, calldatasize)\n        /* \"contracts/OrderProvider.sol\":597:610  centralWallet */\n      0x01\n      0x00\n      swap1\n      sload\n      swap1\n      0x0100\n      exp\n      swap1\n      div\n      0xffffffffffffffffffffffffffffffffffffffff\n      and\n        /* \"contracts/OrderProvider.sol\":589:620  payable(centralWallet).transfer */\n      0xffffffffffffffffffffffffffffffffffffffff\n      and\n        /* \"contracts/OrderProvider.sol\":589:631  payable(centralWallet).transfer(msg.value) */\n      0x08fc\n        /* \"contracts/OrderProvider.sol\":621:630  msg.value */\n      callvalue\n        /* \"contracts/OrderProvider.sol\":589:631  payable(centralWallet).transfer(msg.value) */\n      swap1\n      dup2\n      iszero\n      mul\n      swap1\n      mload(0x40)\n      0x00\n      mload(0x40)\n      dup1\n      dup4\n      sub\n      dup2\n      dup6\n      dup9\n      dup9\n      call\n      swap4\n      pop\n      pop\n      pop\n      pop\n      iszero\n      dup1\n      iszero\n      tag_17\n      jumpi\n      returndatasize\n      0x00\n      dup1\n      returndatacopy\n      revert(0x00, returndatasize)\n    tag_17:\n      pop\n        /* \"contracts/OrderProvider.sol\":176:2040  contract OrderProvider is Ownable {... */\n      stop\n    tag_2:\n      stop\n        /* \"contracts/OrderProvider.sol\":1339:1519  function transferNative(uint16 orderId) external payable {... */\n    tag_3:\n      tag_20\n      0x04\n      dup1\n      calldatasize\n      sub\n      dup2\n      add\n      swap1\n      tag_21\n      swap2\n      swap1\n      tag_22\n      jump\t// in\n    tag_21:\n      tag_23\n      jump\t// in\n    tag_20:\n      stop\n        /* \"contracts/OrderProvider.sol\":428:473  mapping (uint8 => address) public stableCoins */\n    tag_4:\n      callvalue\n      dup1\n      iszero\n      tag_24\n      jumpi\n      0x00\n      dup1\n      revert\n    tag_24:\n      pop\n      tag_25\n      0x04\n      dup1\n      calldatasize\n      sub\n      dup2\n      add\n      swap1\n      tag_26\n      swap2\n      swap1\n      tag_27\n      jump\t// in\n    tag_26:\n      tag_28\n      jump\t// in\n    tag_25:\n      mload(0x40)\n      tag_29\n      swap2\n      swap1\n      tag_30\n      jump\t// in\n    tag_29:\n      mload(0x40)\n      dup1\n      swap2\n      sub\n      swap1\n      return\n        /* \"@openzeppelin/contracts/access/Ownable.sol\":1824:1925  function renounceOwnership() public virtual onlyOwner {... */\n    tag_5:\n      callvalue\n      dup1\n      iszero\n      tag_31\n      jumpi\n      0x00\n      dup1\n      revert\n    tag_31:\n      pop\n      tag_32\n      tag_33\n      jump\t// in\n    tag_32:\n      stop\n        /* \"contracts/OrderProvider.sol\":393:421  address public centralWallet */\n    tag_6:\n      callvalue\n      dup1\n      iszero\n      tag_34\n      jumpi\n      0x00\n      dup1\n      revert\n    tag_34:\n      pop\n      tag_35\n      tag_36\n      jump\t// in\n    tag_35:\n      mload(0x40)\n      tag_37\n      swap2\n      swap1\n      tag_30\n      jump\t// in\n    tag_37:\n      mload(0x40)\n      dup1\n      swap2\n      sub\n      swap1\n      return\n        /* \"@openzeppelin/contracts/access/Ownable.sol\":1201:1286  function owner() public view virtual returns (address) {... */\n    tag_7:\n      callvalue\n      dup1\n      iszero\n      tag_38\n      jumpi\n      0x00\n      dup1\n      revert\n    tag_38:\n      pop\n      tag_39\n      tag_40\n      jump\t// in\n    tag_39:\n      mload(0x40)\n      tag_41\n      swap2\n      swap1\n      tag_30\n      jump\t// in\n    tag_41:\n      mload(0x40)\n      dup1\n      swap2\n      sub\n      swap1\n      return\n        /* \"contracts/OrderProvider.sol\":1161:1331  function updateCentralWallet(address _address) external onlyOwner {... */\n    tag_8:\n      callvalue\n      dup1\n      iszero\n      tag_42\n      jumpi\n      0x00\n      dup1\n      revert\n    tag_42:\n      pop\n      tag_43\n      0x04\n      dup1\n      calldatasize\n      sub\n      dup2\n      add\n      swap1\n      tag_44\n      swap2\n      swap1\n      tag_45\n      jump\t// in\n    tag_44:\n      tag_46\n      jump\t// in\n    tag_43:\n      stop\n        /* \"contracts/OrderProvider.sol\":685:802  function setupStableCoin(uint8 id, address _address) external onlyOwner {... */\n    tag_9:\n      callvalue\n      dup1\n      iszero\n      tag_47\n      jumpi\n      0x00\n      dup1\n      revert\n    tag_47:\n      pop\n      tag_48\n      0x04\n      dup1\n      calldatasize\n      sub\n      dup2\n      add\n      swap1\n      tag_49\n      swap2\n      swap1\n      tag_50\n      jump\t// in\n    tag_49:\n      tag_51\n      jump\t// in\n    tag_48:\n      stop\n        /* \"contracts/OrderProvider.sol\":810:1153  function emergencyTokenWithdraw(uint8 stableCoinId) external onlyOwner {... */\n    tag_10:\n      callvalue\n      dup1\n      iszero\n      tag_52\n      jumpi\n      0x00\n      dup1\n      revert\n    tag_52:\n      pop\n      tag_53\n      0x04\n      dup1\n      calldatasize\n      sub\n      dup2\n      add\n      swap1\n      tag_54\n      swap2\n      swap1\n      tag_27\n      jump\t// in\n    tag_54:\n      tag_55\n      jump\t// in\n    tag_53:\n      stop\n        /* \"@openzeppelin/contracts/access/Ownable.sol\":2074:2272  function transferOwnership(address newOwner) public virtual onlyOwner {... */\n    tag_11:\n      callvalue\n      dup1\n      iszero\n      tag_56\n      jumpi\n      0x00\n      dup1\n      revert\n    tag_56:\n      pop\n      tag_57\n      0x04\n      dup1\n      calldatasize\n      sub\n      dup2\n      add\n      swap1\n      tag_58\n      swap2\n      swap1\n      tag_45\n      jump\t// in\n    tag_58:\n      tag_59\n      jump\t// in\n    tag_57:\n      stop\n        /* \"contracts/OrderProvider.sol\":1527:2035  function transferStableCoin(uint8 stableCoinId, uint16 orderId, uint amount) external {... */\n    tag_12:\n      callvalue\n      dup1\n      iszero\n      tag_60\n      jumpi\n      0x00\n      dup1\n      revert\n    tag_60:\n      pop\n      tag_61\n      0x04\n      dup1\n      calldatasize\n      sub\n      dup2\n      add\n      swap1\n      tag_62\n      swap2\n      swap1\n      tag_63\n      jump\t// in\n    tag_62:\n      tag_64\n      jump\t// in\n    tag_61:\n      stop\n        /* \"contracts/OrderProvider.sol\":1339:1519  function transferNative(uint16 orderId) external payable {... */\n    tag_23:\n        /* \"contracts/OrderProvider.sol\":1415:1428  centralWallet */\n      0x01\n      0x00\n      swap1\n      sload\n      swap1\n      0x0100\n      exp\n      swap1\n      div\n      0xffffffffffffffffffffffffffffffffffffffff\n      and\n        /* \"contracts/OrderProvider.sol\":1407:1438  payable(centralWallet).transfer */\n      0xffffffffffffffffffffffffffffffffffffffff\n      and\n        /* \"contracts/OrderProvider.sol\":1407:1449  payable(centralWallet).transfer(msg.value) */\n      0x08fc\n        /* \"contracts/OrderProvider.sol\":1439:1448  msg.value */\n      callvalue\n        /* \"contracts/OrderProvider.sol\":1407:1449  payable(centralWallet).transfer(msg.value) */\n      swap1\n      dup2\n      iszero\n      mul\n      swap1\n      mload(0x40)\n      0x00\n      mload(0x40)\n      dup1\n      dup4\n      sub\n      dup2\n      dup6\n      dup9\n      dup9\n      call\n      swap4\n      pop\n      pop\n      pop\n      pop\n      iszero\n      dup1\n      iszero\n      tag_67\n      jumpi\n      returndatasize\n      0x00\n      dup1\n      returndatacopy\n      revert(0x00, returndatasize)\n    tag_67:\n      pop\n        /* \"contracts/OrderProvider.sol\":1465:1511  TransferNative(orderId, msg.value, msg.sender) */\n      0xc8b771a21071abadcd210f45830e9ce8ddc6d58123e705183271e1bebf656c95\n        /* \"contracts/OrderProvider.sol\":1480:1487  orderId */\n      dup2\n        /* \"contracts/OrderProvider.sol\":1489:1498  msg.value */\n      callvalue\n        /* \"contracts/OrderProvider.sol\":1500:1510  msg.sender */\n      caller\n        /* \"contracts/OrderProvider.sol\":1465:1511  TransferNative(orderId, msg.value, msg.sender) */\n      mload(0x40)\n      tag_68\n      swap4\n      swap3\n      swap2\n      swap1\n      tag_69\n      jump\t// in\n    tag_68:\n      mload(0x40)\n      dup1\n      swap2\n      sub\n      swap1\n      log1\n        /* \"contracts/OrderProvider.sol\":1339:1519  function transferNative(uint16 orderId) external payable {... */\n      pop\n      jump\t// out\n        /* \"contracts/OrderProvider.sol\":428:473  mapping (uint8 => address) public stableCoins */\n    tag_28:\n      mstore(0x20, 0x02)\n      dup1\n      0x00\n      mstore\n      keccak256(0x00, 0x40)\n      0x00\n      swap2\n      pop\n      sload\n      swap1\n      0x0100\n      exp\n      swap1\n      div\n      0xffffffffffffffffffffffffffffffffffffffff\n      and\n      dup2\n      jump\t// out\n        /* \"@openzeppelin/contracts/access/Ownable.sol\":1824:1925  function renounceOwnership() public virtual onlyOwner {... */\n    tag_33:\n        /* \"@openzeppelin/contracts/access/Ownable.sol\":1094:1107  _checkOwner() */\n      tag_71\n        /* \"@openzeppelin/contracts/access/Ownable.sol\":1094:1105  _checkOwner */\n      tag_72\n        /* \"@openzeppelin/contracts/access/Ownable.sol\":1094:1107  _checkOwner() */\n      jump\t// in\n    tag_71:\n        /* \"@openzeppelin/contracts/access/Ownable.sol\":1888:1918  _transferOwnership(address(0)) */\n      tag_74\n        /* \"@openzeppelin/contracts/access/Ownable.sol\":1915:1916  0 */\n      0x00\n        /* \"@openzeppelin/contracts/access/Ownable.sol\":1888:1906  _transferOwnership */\n      tag_75\n        /* \"@openzeppelin/contracts/access/Ownable.sol\":1888:1918  _transferOwnership(address(0)) */\n      jump\t// in\n    tag_74:\n        /* \"@openzeppelin/contracts/access/Ownable.sol\":1824:1925  function renounceOwnership() public virtual onlyOwner {... */\n      jump\t// out\n        /* \"contracts/OrderProvider.sol\":393:421  address public centralWallet */\n    tag_36:\n      0x01\n      0x00\n      swap1\n      sload\n      swap1\n      0x0100\n      exp\n      swap1\n      div\n      0xffffffffffffffffffffffffffffffffffffffff\n      and\n      dup2\n      jump\t// out\n        /* \"@openzeppelin/contracts/access/Ownable.sol\":1201:1286  function owner() public view virtual returns (address) {... */\n    tag_40:\n        /* \"@openzeppelin/contracts/access/Ownable.sol\":1247:1254  address */\n      0x00\n        /* \"@openzeppelin/contracts/access/Ownable.sol\":1273:1279  _owner */\n      dup1\n      0x00\n      swap1\n      sload\n      swap1\n      0x0100\n      exp\n      swap1\n      div\n      0xffffffffffffffffffffffffffffffffffffffff\n      and\n        /* \"@openzeppelin/contracts/access/Ownable.sol\":1266:1279  return _owner */\n      swap1\n      pop\n        /* \"@openzeppelin/contracts/access/Ownable.sol\":1201:1286  function owner() public view virtual returns (address) {... */\n      swap1\n      jump\t// out\n        /* \"contracts/OrderProvider.sol\":1161:1331  function updateCentralWallet(address _address) external onlyOwner {... */\n    tag_46:\n        /* \"@openzeppelin/contracts/access/Ownable.sol\":1094:1107  _checkOwner() */\n      tag_78\n        /* \"@openzeppelin/contracts/access/Ownable.sol\":1094:1105  _checkOwner */\n      tag_72\n        /* \"@openzeppelin/contracts/access/Ownable.sol\":1094:1107  _checkOwner() */\n      jump\t// in\n    tag_78:\n        /* \"contracts/OrderProvider.sol\":1266:1267  0 */\n      0x00\n        /* \"contracts/OrderProvider.sol\":1246:1268  _address != address(0) */\n      0xffffffffffffffffffffffffffffffffffffffff\n      and\n        /* \"contracts/OrderProvider.sol\":1246:1254  _address */\n      dup2\n        /* \"contracts/OrderProvider.sol\":1246:1268  _address != address(0) */\n      0xffffffffffffffffffffffffffffffffffffffff\n      and\n      eq\n      iszero\n        /* \"contracts/OrderProvider.sol\":1238:1288  require(_address != address(0), 'Invalid address') */\n      tag_80\n      jumpi\n      mload(0x40)\n      0x08c379a000000000000000000000000000000000000000000000000000000000\n      dup2\n      mstore\n      0x04\n      add\n      tag_81\n      swap1\n      tag_82\n      jump\t// in\n    tag_81:\n      mload(0x40)\n      dup1\n      swap2\n      sub\n      swap1\n      revert\n    tag_80:\n        /* \"contracts/OrderProvider.sol\":1315:1323  _address */\n      dup1\n        /* \"contracts/OrderProvider.sol\":1299:1312  centralWallet */\n      0x01\n      0x00\n        /* \"contracts/OrderProvider.sol\":1299:1323  centralWallet = _address */\n      0x0100\n      exp\n      dup2\n      sload\n      dup2\n      0xffffffffffffffffffffffffffffffffffffffff\n      mul\n      not\n      and\n      swap1\n      dup4\n      0xffffffffffffffffffffffffffffffffffffffff\n      and\n      mul\n      or\n      swap1\n      sstore\n      pop\n        /* \"contracts/OrderProvider.sol\":1161:1331  function updateCentralWallet(address _address) external onlyOwner {... */\n      pop\n      jump\t// out\n        /* \"contracts/OrderProvider.sol\":685:802  function setupStableCoin(uint8 id, address _address) external onlyOwner {... */\n    tag_51:\n        /* \"@openzeppelin/contracts/access/Ownable.sol\":1094:1107  _checkOwner() */\n      tag_84\n        /* \"@openzeppelin/contracts/access/Ownable.sol\":1094:1105  _checkOwner */\n      tag_72\n        /* \"@openzeppelin/contracts/access/Ownable.sol\":1094:1107  _checkOwner() */\n      jump\t// in\n    tag_84:\n        /* \"contracts/OrderProvider.sol\":786:794  _address */\n      dup1\n        /* \"contracts/OrderProvider.sol\":768:779  stableCoins */\n      0x02\n        /* \"contracts/OrderProvider.sol\":768:783  stableCoins[id] */\n      0x00\n        /* \"contracts/OrderProvider.sol\":780:782  id */\n      dup5\n        /* \"contracts/OrderProvider.sol\":768:783  stableCoins[id] */\n      0xff\n      and\n      0xff\n      and\n      dup2\n      mstore\n      0x20\n      add\n      swap1\n      dup2\n      mstore\n      0x20\n      add\n      0x00\n      keccak256\n      0x00\n        /* \"contracts/OrderProvider.sol\":768:794  stableCoins[id] = _address */\n      0x0100\n      exp\n      dup2\n      sload\n      dup2\n      0xffffffffffffffffffffffffffffffffffffffff\n      mul\n      not\n      and\n      swap1\n      dup4\n      0xffffffffffffffffffffffffffffffffffffffff\n      and\n      mul\n      or\n      swap1\n      sstore\n      pop\n        /* \"contracts/OrderProvider.sol\":685:802  function setupStableCoin(uint8 id, address _address) external onlyOwner {... */\n      pop\n      pop\n      jump\t// out\n        /* \"contracts/OrderProvider.sol\":810:1153  function emergencyTokenWithdraw(uint8 stableCoinId) external onlyOwner {... */\n    tag_55:\n        /* \"@openzeppelin/contracts/access/Ownable.sol\":1094:1107  _checkOwner() */\n      tag_87\n        /* \"@openzeppelin/contracts/access/Ownable.sol\":1094:1105  _checkOwner */\n      tag_72\n        /* \"@openzeppelin/contracts/access/Ownable.sol\":1094:1107  _checkOwner() */\n      jump\t// in\n    tag_87:\n        /* \"contracts/OrderProvider.sol\":937:938  0 */\n      0x00\n        /* \"contracts/OrderProvider.sol\":900:939  stableCoins[stableCoinId] != address(0) */\n      0xffffffffffffffffffffffffffffffffffffffff\n      and\n        /* \"contracts/OrderProvider.sol\":900:911  stableCoins */\n      0x02\n        /* \"contracts/OrderProvider.sol\":900:925  stableCoins[stableCoinId] */\n      0x00\n        /* \"contracts/OrderProvider.sol\":912:924  stableCoinId */\n      dup4\n        /* \"contracts/OrderProvider.sol\":900:925  stableCoins[stableCoinId] */\n      0xff\n      and\n      0xff\n      and\n      dup2\n      mstore\n      0x20\n      add\n      swap1\n      dup2\n      mstore\n      0x20\n      add\n      0x00\n      keccak256\n      0x00\n      swap1\n      sload\n      swap1\n      0x0100\n      exp\n      swap1\n      div\n      0xffffffffffffffffffffffffffffffffffffffff\n      and\n        /* \"contracts/OrderProvider.sol\":900:939  stableCoins[stableCoinId] != address(0) */\n      0xffffffffffffffffffffffffffffffffffffffff\n      and\n      eq\n      iszero\n        /* \"contracts/OrderProvider.sol\":892:964  require(stableCoins[stableCoinId] != address(0), 'Error stable coin id') */\n      tag_89\n      jumpi\n      mload(0x40)\n      0x08c379a000000000000000000000000000000000000000000000000000000000\n      dup2\n      mstore\n      0x04\n      add\n      tag_90\n      swap1\n      tag_91\n      jump\t// in\n    tag_90:\n      mload(0x40)\n      dup1\n      swap2\n      sub\n      swap1\n      revert\n    tag_89:\n        /* \"contracts/OrderProvider.sol\":975:992  IERC20 stableCoin */\n      0x00\n        /* \"contracts/OrderProvider.sol\":1002:1013  stableCoins */\n      0x02\n        /* \"contracts/OrderProvider.sol\":1002:1027  stableCoins[stableCoinId] */\n      0x00\n        /* \"contracts/OrderProvider.sol\":1014:1026  stableCoinId */\n      dup4\n        /* \"contracts/OrderProvider.sol\":1002:1027  stableCoins[stableCoinId] */\n      0xff\n      and\n      0xff\n      and\n      dup2\n      mstore\n      0x20\n      add\n      swap1\n      dup2\n      mstore\n      0x20\n      add\n      0x00\n      keccak256\n      0x00\n      swap1\n      sload\n      swap1\n      0x0100\n      exp\n      swap1\n      div\n      0xffffffffffffffffffffffffffffffffffffffff\n      and\n        /* \"contracts/OrderProvider.sol\":975:1028  IERC20 stableCoin = IERC20(stableCoins[stableCoinId]) */\n      swap1\n      pop\n        /* \"contracts/OrderProvider.sol\":1041:1052  uint amount */\n      0x00\n        /* \"contracts/OrderProvider.sol\":1055:1065  stableCoin */\n      dup2\n        /* \"contracts/OrderProvider.sol\":1055:1075  stableCoin.balanceOf */\n      0xffffffffffffffffffffffffffffffffffffffff\n      and\n      0x70a08231\n        /* \"contracts/OrderProvider.sol\":1084:1088  this */\n      address\n        /* \"contracts/OrderProvider.sol\":1055:1090  stableCoin.balanceOf(address(this)) */\n      mload(0x40)\n      dup3\n      0xffffffff\n      and\n      0xe0\n      shl\n      dup2\n      mstore\n      0x04\n      add\n      tag_92\n      swap2\n      swap1\n      tag_30\n      jump\t// in\n    tag_92:\n      0x20\n      mload(0x40)\n      dup1\n      dup4\n      sub\n      dup2\n      dup7\n      dup1\n      extcodesize\n      iszero\n      dup1\n      iszero\n      tag_93\n      jumpi\n      0x00\n      dup1\n      revert\n    tag_93:\n      pop\n      gas\n      staticcall\n      iszero\n      dup1\n      iszero\n      tag_95\n      jumpi\n      returndatasize\n      0x00\n      dup1\n      returndatacopy\n      revert(0x00, returndatasize)\n    tag_95:\n      pop\n      pop\n      pop\n      pop\n      mload(0x40)\n      returndatasize\n      not(0x1f)\n      0x1f\n      dup3\n      add\n      and\n      dup3\n      add\n      dup1\n      0x40\n      mstore\n      pop\n      dup2\n      add\n      swap1\n      tag_96\n      swap2\n      swap1\n      tag_97\n      jump\t// in\n    tag_96:\n        /* \"contracts/OrderProvider.sol\":1041:1090  uint amount = stableCoin.balanceOf(address(this)) */\n      swap1\n      pop\n        /* \"contracts/OrderProvider.sol\":1103:1113  stableCoin */\n      dup2\n        /* \"contracts/OrderProvider.sol\":1103:1122  stableCoin.transfer */\n      0xffffffffffffffffffffffffffffffffffffffff\n      and\n      0xa9059cbb\n        /* \"contracts/OrderProvider.sol\":1123:1136  centralWallet */\n      0x01\n      0x00\n      swap1\n      sload\n      swap1\n      0x0100\n      exp\n      swap1\n      div\n      0xffffffffffffffffffffffffffffffffffffffff\n      and\n        /* \"contracts/OrderProvider.sol\":1138:1144  amount */\n      dup4\n        /* \"contracts/OrderProvider.sol\":1103:1145  stableCoin.transfer(centralWallet, amount) */\n      mload(0x40)\n      dup4\n      0xffffffff\n      and\n      0xe0\n      shl\n      dup2\n      mstore\n      0x04\n      add\n      tag_98\n      swap3\n      swap2\n      swap1\n      tag_99\n      jump\t// in\n    tag_98:\n      0x20\n      mload(0x40)\n      dup1\n      dup4\n      sub\n      dup2\n      0x00\n      dup8\n      dup1\n      extcodesize\n      iszero\n      dup1\n      iszero\n      tag_100\n      jumpi\n      0x00\n      dup1\n      revert\n    tag_100:\n      pop\n      gas\n      call\n      iszero\n      dup1\n      iszero\n      tag_102\n      jumpi\n      returndatasize\n      0x00\n      dup1\n      returndatacopy\n      revert(0x00, returndatasize)\n    tag_102:\n      pop\n      pop\n      pop\n      pop\n      mload(0x40)\n      returndatasize\n      not(0x1f)\n      0x1f\n      dup3\n      add\n      and\n      dup3\n      add\n      dup1\n      0x40\n      mstore\n      pop\n      dup2\n      add\n      swap1\n      tag_103\n      swap2\n      swap1\n      tag_104\n      jump\t// in\n    tag_103:\n      pop\n        /* \"contracts/OrderProvider.sol\":881:1153  {... */\n      pop\n      pop\n        /* \"contracts/OrderProvider.sol\":810:1153  function emergencyTokenWithdraw(uint8 stableCoinId) external onlyOwner {... */\n      pop\n      jump\t// out\n        /* \"@openzeppelin/contracts/access/Ownable.sol\":2074:2272  function transferOwnership(address newOwner) public virtual onlyOwner {... */\n    tag_59:\n        /* \"@openzeppelin/contracts/access/Ownable.sol\":1094:1107  _checkOwner() */\n      tag_106\n        /* \"@openzeppelin/contracts/access/Ownable.sol\":1094:1105  _checkOwner */\n      tag_72\n        /* \"@openzeppelin/contracts/access/Ownable.sol\":1094:1107  _checkOwner() */\n      jump\t// in\n    tag_106:\n        /* \"@openzeppelin/contracts/access/Ownable.sol\":2182:2183  0 */\n      0x00\n        /* \"@openzeppelin/contracts/access/Ownable.sol\":2162:2184  newOwner != address(0) */\n      0xffffffffffffffffffffffffffffffffffffffff\n      and\n        /* \"@openzeppelin/contracts/access/Ownable.sol\":2162:2170  newOwner */\n      dup2\n        /* \"@openzeppelin/contracts/access/Ownable.sol\":2162:2184  newOwner != address(0) */\n      0xffffffffffffffffffffffffffffffffffffffff\n      and\n      eq\n      iszero\n        /* \"@openzeppelin/contracts/access/Ownable.sol\":2154:2227  require(newOwner != address(0), \"Ownable: new owner is the zero address\") */\n      tag_108\n      jumpi\n      mload(0x40)\n      0x08c379a000000000000000000000000000000000000000000000000000000000\n      dup2\n      mstore\n      0x04\n      add\n      tag_109\n      swap1\n      tag_110\n      jump\t// in\n    tag_109:\n      mload(0x40)\n      dup1\n      swap2\n      sub\n      swap1\n      revert\n    tag_108:\n        /* \"@openzeppelin/contracts/access/Ownable.sol\":2237:2265  _transferOwnership(newOwner) */\n      tag_111\n        /* \"@openzeppelin/contracts/access/Ownable.sol\":2256:2264  newOwner */\n      dup2\n        /* \"@openzeppelin/contracts/access/Ownable.sol\":2237:2255  _transferOwnership */\n      tag_75\n        /* \"@openzeppelin/contracts/access/Ownable.sol\":2237:2265  _transferOwnership(newOwner) */\n      jump\t// in\n    tag_111:\n        /* \"@openzeppelin/contracts/access/Ownable.sol\":2074:2272  function transferOwnership(address newOwner) public virtual onlyOwner {... */\n      pop\n      jump\t// out\n        /* \"contracts/OrderProvider.sol\":1527:2035  function transferStableCoin(uint8 stableCoinId, uint16 orderId, uint amount) external {... */\n    tag_64:\n        /* \"contracts/OrderProvider.sol\":1669:1670  0 */\n      0x00\n        /* \"contracts/OrderProvider.sol\":1632:1671  stableCoins[stableCoinId] != address(0) */\n      0xffffffffffffffffffffffffffffffffffffffff\n      and\n        /* \"contracts/OrderProvider.sol\":1632:1643  stableCoins */\n      0x02\n        /* \"contracts/OrderProvider.sol\":1632:1657  stableCoins[stableCoinId] */\n      0x00\n        /* \"contracts/OrderProvider.sol\":1644:1656  stableCoinId */\n      dup6\n        /* \"contracts/OrderProvider.sol\":1632:1657  stableCoins[stableCoinId] */\n      0xff\n      and\n      0xff\n      and\n      dup2\n      mstore\n      0x20\n      add\n      swap1\n      dup2\n      mstore\n      0x20\n      add\n      0x00\n      keccak256\n      0x00\n      swap1\n      sload\n      swap1\n      0x0100\n      exp\n      swap1\n      div\n      0xffffffffffffffffffffffffffffffffffffffff\n      and\n        /* \"contracts/OrderProvider.sol\":1632:1671  stableCoins[stableCoinId] != address(0) */\n      0xffffffffffffffffffffffffffffffffffffffff\n      and\n      eq\n      iszero\n        /* \"contracts/OrderProvider.sol\":1624:1696  require(stableCoins[stableCoinId] != address(0), 'Error stable coin id') */\n      tag_113\n      jumpi\n      mload(0x40)\n      0x08c379a000000000000000000000000000000000000000000000000000000000\n      dup2\n      mstore\n      0x04\n      add\n      tag_114\n      swap1\n      tag_91\n      jump\t// in\n    tag_114:\n      mload(0x40)\n      dup1\n      swap2\n      sub\n      swap1\n      revert\n    tag_113:\n        /* \"contracts/OrderProvider.sol\":1707:1724  IERC20 stableCoin */\n      0x00\n        /* \"contracts/OrderProvider.sol\":1734:1745  stableCoins */\n      0x02\n        /* \"contracts/OrderProvider.sol\":1734:1759  stableCoins[stableCoinId] */\n      0x00\n        /* \"contracts/OrderProvider.sol\":1746:1758  stableCoinId */\n      dup6\n        /* \"contracts/OrderProvider.sol\":1734:1759  stableCoins[stableCoinId] */\n      0xff\n      and\n      0xff\n      and\n      dup2\n      mstore\n      0x20\n      add\n      swap1\n      dup2\n      mstore\n      0x20\n      add\n      0x00\n      keccak256\n      0x00\n      swap1\n      sload\n      swap1\n      0x0100\n      exp\n      swap1\n      div\n      0xffffffffffffffffffffffffffffffffffffffff\n      and\n        /* \"contracts/OrderProvider.sol\":1707:1760  IERC20 stableCoin = IERC20(stableCoins[stableCoinId]) */\n      swap1\n      pop\n        /* \"contracts/OrderProvider.sol\":1832:1838  amount */\n      dup2\n        /* \"contracts/OrderProvider.sol\":1781:1791  stableCoin */\n      dup2\n        /* \"contracts/OrderProvider.sol\":1781:1801  stableCoin.allowance */\n      0xffffffffffffffffffffffffffffffffffffffff\n      and\n      0xdd62ed3e\n        /* \"contracts/OrderProvider.sol\":1802:1812  msg.sender */\n      caller\n        /* \"contracts/OrderProvider.sol\":1822:1826  this */\n      address\n        /* \"contracts/OrderProvider.sol\":1781:1828  stableCoin.allowance(msg.sender, address(this)) */\n      mload(0x40)\n      dup4\n      0xffffffff\n      and\n      0xe0\n      shl\n      dup2\n      mstore\n      0x04\n      add\n      tag_115\n      swap3\n      swap2\n      swap1\n      tag_116\n      jump\t// in\n    tag_115:\n      0x20\n      mload(0x40)\n      dup1\n      dup4\n      sub\n      dup2\n      dup7\n      dup1\n      extcodesize\n      iszero\n      dup1\n      iszero\n      tag_117\n      jumpi\n      0x00\n      dup1\n      revert\n    tag_117:\n      pop\n      gas\n      staticcall\n      iszero\n      dup1\n      iszero\n      tag_119\n      jumpi\n      returndatasize\n      0x00\n      dup1\n      returndatacopy\n      revert(0x00, returndatasize)\n    tag_119:\n      pop\n      pop\n      pop\n      pop\n      mload(0x40)\n      returndatasize\n      not(0x1f)\n      0x1f\n      dup3\n      add\n      and\n      dup3\n      add\n      dup1\n      0x40\n      mstore\n      pop\n      dup2\n      add\n      swap1\n      tag_120\n      swap2\n      swap1\n      tag_97\n      jump\t// in\n    tag_120:\n        /* \"contracts/OrderProvider.sol\":1781:1838  stableCoin.allowance(msg.sender, address(this)) >= amount */\n      lt\n      iszero\n        /* \"contracts/OrderProvider.sol\":1773:1858  require(stableCoin.allowance(msg.sender, address(this)) >= amount, 'Error allowance') */\n      tag_121\n      jumpi\n      mload(0x40)\n      0x08c379a000000000000000000000000000000000000000000000000000000000\n      dup2\n      mstore\n      0x04\n      add\n      tag_122\n      swap1\n      tag_123\n      jump\t// in\n    tag_122:\n      mload(0x40)\n      dup1\n      swap2\n      sub\n      swap1\n      revert\n    tag_121:\n        /* \"contracts/OrderProvider.sol\":1879:1889  stableCoin */\n      dup1\n        /* \"contracts/OrderProvider.sol\":1879:1902  stableCoin.transferFrom */\n      0xffffffffffffffffffffffffffffffffffffffff\n      and\n      0x23b872dd\n        /* \"contracts/OrderProvider.sol\":1903:1913  msg.sender */\n      caller\n        /* \"contracts/OrderProvider.sol\":1915:1928  centralWallet */\n      0x01\n      0x00\n      swap1\n      sload\n      swap1\n      0x0100\n      exp\n      swap1\n      div\n      0xffffffffffffffffffffffffffffffffffffffff\n      and\n        /* \"contracts/OrderProvider.sol\":1930:1936  amount */\n      dup6\n        /* \"contracts/OrderProvider.sol\":1879:1937  stableCoin.transferFrom(msg.sender, centralWallet, amount) */\n      mload(0x40)\n      dup5\n      0xffffffff\n      and\n      0xe0\n      shl\n      dup2\n      mstore\n      0x04\n      add\n      tag_124\n      swap4\n      swap3\n      swap2\n      swap1\n      tag_125\n      jump\t// in\n    tag_124:\n      0x20\n      mload(0x40)\n      dup1\n      dup4\n      sub\n      dup2\n      0x00\n      dup8\n      dup1\n      extcodesize\n      iszero\n      dup1\n      iszero\n      tag_126\n      jumpi\n      0x00\n      dup1\n      revert\n    tag_126:\n      pop\n      gas\n      call\n      iszero\n      dup1\n      iszero\n      tag_128\n      jumpi\n      returndatasize\n      0x00\n      dup1\n      returndatacopy\n      revert(0x00, returndatasize)\n    tag_128:\n      pop\n      pop\n      pop\n      pop\n      mload(0x40)\n      returndatasize\n      not(0x1f)\n      0x1f\n      dup3\n      add\n      and\n      dup3\n      add\n      dup1\n      0x40\n      mstore\n      pop\n      dup2\n      add\n      swap1\n      tag_129\n      swap2\n      swap1\n      tag_104\n      jump\t// in\n    tag_129:\n      pop\n        /* \"contracts/OrderProvider.sol\":1953:2027  TransferStableCoin(orderId, stableCoins[stableCoinId], amount, msg.sender) */\n      0x72c1e167858816e025e7a4e646cded5df40001001b8ea94e59272b63321ef8fd\n        /* \"contracts/OrderProvider.sol\":1972:1979  orderId */\n      dup4\n        /* \"contracts/OrderProvider.sol\":1981:1992  stableCoins */\n      0x02\n        /* \"contracts/OrderProvider.sol\":1981:2006  stableCoins[stableCoinId] */\n      0x00\n        /* \"contracts/OrderProvider.sol\":1993:2005  stableCoinId */\n      dup8\n        /* \"contracts/OrderProvider.sol\":1981:2006  stableCoins[stableCoinId] */\n      0xff\n      and\n      0xff\n      and\n      dup2\n      mstore\n      0x20\n      add\n      swap1\n      dup2\n      mstore\n      0x20\n      add\n      0x00\n      keccak256\n      0x00\n      swap1\n      sload\n      swap1\n      0x0100\n      exp\n      swap1\n      div\n      0xffffffffffffffffffffffffffffffffffffffff\n      and\n        /* \"contracts/OrderProvider.sol\":2008:2014  amount */\n      dup5\n        /* \"contracts/OrderProvider.sol\":2016:2026  msg.sender */\n      caller\n        /* \"contracts/OrderProvider.sol\":1953:2027  TransferStableCoin(orderId, stableCoins[stableCoinId], amount, msg.sender) */\n      mload(0x40)\n      tag_130\n      swap5\n      swap4\n      swap3\n      swap2\n      swap1\n      tag_131\n      jump\t// in\n    tag_130:\n      mload(0x40)\n      dup1\n      swap2\n      sub\n      swap1\n      log1\n        /* \"contracts/OrderProvider.sol\":1613:2035  {... */\n      pop\n        /* \"contracts/OrderProvider.sol\":1527:2035  function transferStableCoin(uint8 stableCoinId, uint16 orderId, uint amount) external {... */\n      pop\n      pop\n      pop\n      jump\t// out\n        /* \"@openzeppelin/contracts/access/Ownable.sol\":1359:1489  function _checkOwner() internal view virtual {... */\n    tag_72:\n        /* \"@openzeppelin/contracts/access/Ownable.sol\":1433:1445  _msgSender() */\n      tag_133\n        /* \"@openzeppelin/contracts/access/Ownable.sol\":1433:1443  _msgSender */\n      tag_134\n        /* \"@openzeppelin/contracts/access/Ownable.sol\":1433:1445  _msgSender() */\n      jump\t// in\n    tag_133:\n        /* \"@openzeppelin/contracts/access/Ownable.sol\":1422:1445  owner() == _msgSender() */\n      0xffffffffffffffffffffffffffffffffffffffff\n      and\n        /* \"@openzeppelin/contracts/access/Ownable.sol\":1422:1429  owner() */\n      tag_135\n        /* \"@openzeppelin/contracts/access/Ownable.sol\":1422:1427  owner */\n      tag_40\n        /* \"@openzeppelin/contracts/access/Ownable.sol\":1422:1429  owner() */\n      jump\t// in\n    tag_135:\n        /* \"@openzeppelin/contracts/access/Ownable.sol\":1422:1445  owner() == _msgSender() */\n      0xffffffffffffffffffffffffffffffffffffffff\n      and\n      eq\n        /* \"@openzeppelin/contracts/access/Ownable.sol\":1414:1482  require(owner() == _msgSender(), \"Ownable: caller is not the owner\") */\n      tag_136\n      jumpi\n      mload(0x40)\n      0x08c379a000000000000000000000000000000000000000000000000000000000\n      dup2\n      mstore\n      0x04\n      add\n      tag_137\n      swap1\n      tag_138\n      jump\t// in\n    tag_137:\n      mload(0x40)\n      dup1\n      swap2\n      sub\n      swap1\n      revert\n    tag_136:\n        /* \"@openzeppelin/contracts/access/Ownable.sol\":1359:1489  function _checkOwner() internal view virtual {... */\n      jump\t// out\n        /* \"@openzeppelin/contracts/access/Ownable.sol\":2426:2613  function _transferOwnership(address newOwner) internal virtual {... */\n    tag_75:\n        /* \"@openzeppelin/contracts/access/Ownable.sol\":2499:2515  address oldOwner */\n      0x00\n        /* \"@openzeppelin/contracts/access/Ownable.sol\":2518:2524  _owner */\n      dup1\n      0x00\n      swap1\n      sload\n      swap1\n      0x0100\n      exp\n      swap1\n      div\n      0xffffffffffffffffffffffffffffffffffffffff\n      and\n        /* \"@openzeppelin/contracts/access/Ownable.sol\":2499:2524  address oldOwner = _owner */\n      swap1\n      pop\n        /* \"@openzeppelin/contracts/access/Ownable.sol\":2543:2551  newOwner */\n      dup2\n        /* \"@openzeppelin/contracts/access/Ownable.sol\":2534:2540  _owner */\n      0x00\n      dup1\n        /* \"@openzeppelin/contracts/access/Ownable.sol\":2534:2551  _owner = newOwner */\n      0x0100\n      exp\n      dup2\n      sload\n      dup2\n      0xffffffffffffffffffffffffffffffffffffffff\n      mul\n      not\n      and\n      swap1\n      dup4\n      0xffffffffffffffffffffffffffffffffffffffff\n      and\n      mul\n      or\n      swap1\n      sstore\n      pop\n        /* \"@openzeppelin/contracts/access/Ownable.sol\":2597:2605  newOwner */\n      dup2\n        /* \"@openzeppelin/contracts/access/Ownable.sol\":2566:2606  OwnershipTransferred(oldOwner, newOwner) */\n      0xffffffffffffffffffffffffffffffffffffffff\n      and\n        /* \"@openzeppelin/contracts/access/Ownable.sol\":2587:2595  oldOwner */\n      dup2\n        /* \"@openzeppelin/contracts/access/Ownable.sol\":2566:2606  OwnershipTransferred(oldOwner, newOwner) */\n      0xffffffffffffffffffffffffffffffffffffffff\n      and\n      0x8be0079c531659141344cd1fd0a4f28419497f9722a3daafe3b4186f6b6457e0\n      mload(0x40)\n      mload(0x40)\n      dup1\n      swap2\n      sub\n      swap1\n      log3\n        /* \"@openzeppelin/contracts/access/Ownable.sol\":2489:2613  {... */\n      pop\n        /* \"@openzeppelin/contracts/access/Ownable.sol\":2426:2613  function _transferOwnership(address newOwner) internal virtual {... */\n      pop\n      jump\t// out\n        /* \"@openzeppelin/contracts/utils/Context.sol\":640:736  function _msgSender() internal view virtual returns (address) {... */\n    tag_134:\n        /* \"@openzeppelin/contracts/utils/Context.sol\":693:700  address */\n      0x00\n        /* \"@openzeppelin/contracts/utils/Context.sol\":719:729  msg.sender */\n      caller\n        /* \"@openzeppelin/contracts/utils/Context.sol\":712:729  return msg.sender */\n      swap1\n      pop\n        /* \"@openzeppelin/contracts/utils/Context.sol\":640:736  function _msgSender() internal view virtual returns (address) {... */\n      swap1\n      jump\t// out\n        /* \"#utility.yul\":88:205   */\n    tag_142:\n        /* \"#utility.yul\":197:198   */\n      0x00\n        /* \"#utility.yul\":194:195   */\n      dup1\n        /* \"#utility.yul\":187:199   */\n      revert\n        /* \"#utility.yul\":334:423   */\n    tag_144:\n        /* \"#utility.yul\":370:377   */\n      0x00\n        /* \"#utility.yul\":410:416   */\n      0xffff\n        /* \"#utility.yul\":403:408   */\n      dup3\n        /* \"#utility.yul\":399:417   */\n      and\n        /* \"#utility.yul\":388:417   */\n      swap1\n      pop\n        /* \"#utility.yul\":334:423   */\n      swap2\n      swap1\n      pop\n      jump\t// out\n        /* \"#utility.yul\":429:549   */\n    tag_145:\n        /* \"#utility.yul\":501:524   */\n      tag_181\n        /* \"#utility.yul\":518:523   */\n      dup2\n        /* \"#utility.yul\":501:524   */\n      tag_144\n      jump\t// in\n    tag_181:\n        /* \"#utility.yul\":494:499   */\n      dup2\n        /* \"#utility.yul\":491:525   */\n      eq\n        /* \"#utility.yul\":481:543   */\n      tag_182\n      jumpi\n        /* \"#utility.yul\":539:540   */\n      0x00\n        /* \"#utility.yul\":536:537   */\n      dup1\n        /* \"#utility.yul\":529:541   */\n      revert\n        /* \"#utility.yul\":481:543   */\n    tag_182:\n        /* \"#utility.yul\":429:549   */\n      pop\n      jump\t// out\n        /* \"#utility.yul\":555:692   */\n    tag_146:\n        /* \"#utility.yul\":600:605   */\n      0x00\n        /* \"#utility.yul\":638:644   */\n      dup2\n        /* \"#utility.yul\":625:645   */\n      calldataload\n        /* \"#utility.yul\":616:645   */\n      swap1\n      pop\n        /* \"#utility.yul\":654:686   */\n      tag_184\n        /* \"#utility.yul\":680:685   */\n      dup2\n        /* \"#utility.yul\":654:686   */\n      tag_145\n      jump\t// in\n    tag_184:\n        /* \"#utility.yul\":555:692   */\n      swap3\n      swap2\n      pop\n      pop\n      jump\t// out\n        /* \"#utility.yul\":698:1025   */\n    tag_22:\n        /* \"#utility.yul\":756:762   */\n      0x00\n        /* \"#utility.yul\":805:807   */\n      0x20\n        /* \"#utility.yul\":793:802   */\n      dup3\n        /* \"#utility.yul\":784:791   */\n      dup5\n        /* \"#utility.yul\":780:803   */\n      sub\n        /* \"#utility.yul\":776:808   */\n      slt\n        /* \"#utility.yul\":773:892   */\n      iszero\n      tag_186\n      jumpi\n        /* \"#utility.yul\":811:890   */\n      tag_187\n      tag_142\n      jump\t// in\n    tag_187:\n        /* \"#utility.yul\":773:892   */\n    tag_186:\n        /* \"#utility.yul\":931:932   */\n      0x00\n        /* \"#utility.yul\":956:1008   */\n      tag_188\n        /* \"#utility.yul\":1000:1007   */\n      dup5\n        /* \"#utility.yul\":991:997   */\n      dup3\n        /* \"#utility.yul\":980:989   */\n      dup6\n        /* \"#utility.yul\":976:998   */\n      add\n        /* \"#utility.yul\":956:1008   */\n      tag_146\n      jump\t// in\n    tag_188:\n        /* \"#utility.yul\":946:1008   */\n      swap2\n      pop\n        /* \"#utility.yul\":902:1018   */\n      pop\n        /* \"#utility.yul\":698:1025   */\n      swap3\n      swap2\n      pop\n      pop\n      jump\t// out\n        /* \"#utility.yul\":1031:1117   */\n    tag_147:\n        /* \"#utility.yul\":1066:1073   */\n      0x00\n        /* \"#utility.yul\":1106:1110   */\n      0xff\n        /* \"#utility.yul\":1099:1104   */\n      dup3\n        /* \"#utility.yul\":1095:1111   */\n      and\n        /* \"#utility.yul\":1084:1111   */\n      swap1\n      pop\n        /* \"#utility.yul\":1031:1117   */\n      swap2\n      swap1\n      pop\n      jump\t// out\n        /* \"#utility.yul\":1123:1241   */\n    tag_148:\n        /* \"#utility.yul\":1194:1216   */\n      tag_191\n        /* \"#utility.yul\":1210:1215   */\n      dup2\n        /* \"#utility.yul\":1194:1216   */\n      tag_147\n      jump\t// in\n    tag_191:\n        /* \"#utility.yul\":1187:1192   */\n      dup2\n        /* \"#utility.yul\":1184:1217   */\n      eq\n        /* \"#utility.yul\":1174:1235   */\n      tag_192\n      jumpi\n        /* \"#utility.yul\":1231:1232   */\n      0x00\n        /* \"#utility.yul\":1228:1229   */\n      dup1\n        /* \"#utility.yul\":1221:1233   */\n      revert\n        /* \"#utility.yul\":1174:1235   */\n    tag_192:\n        /* \"#utility.yul\":1123:1241   */\n      pop\n      jump\t// out\n        /* \"#utility.yul\":1247:1382   */\n    tag_149:\n        /* \"#utility.yul\":1291:1296   */\n      0x00\n        /* \"#utility.yul\":1329:1335   */\n      dup2\n        /* \"#utility.yul\":1316:1336   */\n      calldataload\n        /* \"#utility.yul\":1307:1336   */\n      swap1\n      pop\n        /* \"#utility.yul\":1345:1376   */\n      tag_194\n        /* \"#utility.yul\":1370:1375   */\n      dup2\n        /* \"#utility.yul\":1345:1376   */\n      tag_148\n      jump\t// in\n    tag_194:\n        /* \"#utility.yul\":1247:1382   */\n      swap3\n      swap2\n      pop\n      pop\n      jump\t// out\n        /* \"#utility.yul\":1388:1713   */\n    tag_27:\n        /* \"#utility.yul\":1445:1451   */\n      0x00\n        /* \"#utility.yul\":1494:1496   */\n      0x20\n        /* \"#utility.yul\":1482:1491   */\n      dup3\n        /* \"#utility.yul\":1473:1480   */\n      dup5\n        /* \"#utility.yul\":1469:1492   */\n      sub\n        /* \"#utility.yul\":1465:1497   */\n      slt\n        /* \"#utility.yul\":1462:1581   */\n      iszero\n      tag_196\n      jumpi\n        /* \"#utility.yul\":1500:1579   */\n      tag_197\n      tag_142\n      jump\t// in\n    tag_197:\n        /* \"#utility.yul\":1462:1581   */\n    tag_196:\n        /* \"#utility.yul\":1620:1621   */\n      0x00\n        /* \"#utility.yul\":1645:1696   */\n      tag_198\n        /* \"#utility.yul\":1688:1695   */\n      dup5\n        /* \"#utility.yul\":1679:1685   */\n      dup3\n        /* \"#utility.yul\":1668:1677   */\n      dup6\n        /* \"#utility.yul\":1664:1686   */\n      add\n        /* \"#utility.yul\":1645:1696   */\n      tag_149\n      jump\t// in\n    tag_198:\n        /* \"#utility.yul\":1635:1696   */\n      swap2\n      pop\n        /* \"#utility.yul\":1591:1706   */\n      pop\n        /* \"#utility.yul\":1388:1713   */\n      swap3\n      swap2\n      pop\n      pop\n      jump\t// out\n        /* \"#utility.yul\":1719:1845   */\n    tag_150:\n        /* \"#utility.yul\":1756:1763   */\n      0x00\n        /* \"#utility.yul\":1796:1838   */\n      0xffffffffffffffffffffffffffffffffffffffff\n        /* \"#utility.yul\":1789:1794   */\n      dup3\n        /* \"#utility.yul\":1785:1839   */\n      and\n        /* \"#utility.yul\":1774:1839   */\n      swap1\n      pop\n        /* \"#utility.yul\":1719:1845   */\n      swap2\n      swap1\n      pop\n      jump\t// out\n        /* \"#utility.yul\":1851:1947   */\n    tag_151:\n        /* \"#utility.yul\":1888:1895   */\n      0x00\n        /* \"#utility.yul\":1917:1941   */\n      tag_201\n        /* \"#utility.yul\":1935:1940   */\n      dup3\n        /* \"#utility.yul\":1917:1941   */\n      tag_150\n      jump\t// in\n    tag_201:\n        /* \"#utility.yul\":1906:1941   */\n      swap1\n      pop\n        /* \"#utility.yul\":1851:1947   */\n      swap2\n      swap1\n      pop\n      jump\t// out\n        /* \"#utility.yul\":1953:2071   */\n    tag_152:\n        /* \"#utility.yul\":2040:2064   */\n      tag_203\n        /* \"#utility.yul\":2058:2063   */\n      dup2\n        /* \"#utility.yul\":2040:2064   */\n      tag_151\n      jump\t// in\n    tag_203:\n        /* \"#utility.yul\":2035:2038   */\n      dup3\n        /* \"#utility.yul\":2028:2065   */\n      mstore\n        /* \"#utility.yul\":1953:2071   */\n      pop\n      pop\n      jump\t// out\n        /* \"#utility.yul\":2077:2299   */\n    tag_30:\n        /* \"#utility.yul\":2170:2174   */\n      0x00\n        /* \"#utility.yul\":2208:2210   */\n      0x20\n        /* \"#utility.yul\":2197:2206   */\n      dup3\n        /* \"#utility.yul\":2193:2211   */\n      add\n        /* \"#utility.yul\":2185:2211   */\n      swap1\n      pop\n        /* \"#utility.yul\":2221:2292   */\n      tag_205\n        /* \"#utility.yul\":2289:2290   */\n      0x00\n        /* \"#utility.yul\":2278:2287   */\n      dup4\n        /* \"#utility.yul\":2274:2291   */\n      add\n        /* \"#utility.yul\":2265:2271   */\n      dup5\n        /* \"#utility.yul\":2221:2292   */\n      tag_152\n      jump\t// in\n    tag_205:\n        /* \"#utility.yul\":2077:2299   */\n      swap3\n      swap2\n      pop\n      pop\n      jump\t// out\n        /* \"#utility.yul\":2305:2427   */\n    tag_153:\n        /* \"#utility.yul\":2378:2402   */\n      tag_207\n        /* \"#utility.yul\":2396:2401   */\n      dup2\n        /* \"#utility.yul\":2378:2402   */\n      tag_151\n      jump\t// in\n    tag_207:\n        /* \"#utility.yul\":2371:2376   */\n      dup2\n        /* \"#utility.yul\":2368:2403   */\n      eq\n        /* \"#utility.yul\":2358:2421   */\n      tag_208\n      jumpi\n        /* \"#utility.yul\":2417:2418   */\n      0x00\n        /* \"#utility.yul\":2414:2415   */\n      dup1\n        /* \"#utility.yul\":2407:2419   */\n      revert\n        /* \"#utility.yul\":2358:2421   */\n    tag_208:\n        /* \"#utility.yul\":2305:2427   */\n      pop\n      jump\t// out\n        /* \"#utility.yul\":2433:2572   */\n    tag_154:\n        /* \"#utility.yul\":2479:2484   */\n      0x00\n        /* \"#utility.yul\":2517:2523   */\n      dup2\n        /* \"#utility.yul\":2504:2524   */\n      calldataload\n        /* \"#utility.yul\":2495:2524   */\n      swap1\n      pop\n        /* \"#utility.yul\":2533:2566   */\n      tag_210\n        /* \"#utility.yul\":2560:2565   */\n      dup2\n        /* \"#utility.yul\":2533:2566   */\n      tag_153\n      jump\t// in\n    tag_210:\n        /* \"#utility.yul\":2433:2572   */\n      swap3\n      swap2\n      pop\n      pop\n      jump\t// out\n        /* \"#utility.yul\":2578:2907   */\n    tag_45:\n        /* \"#utility.yul\":2637:2643   */\n      0x00\n        /* \"#utility.yul\":2686:2688   */\n      0x20\n        /* \"#utility.yul\":2674:2683   */\n      dup3\n        /* \"#utility.yul\":2665:2672   */\n      dup5\n        /* \"#utility.yul\":2661:2684   */\n      sub\n        /* \"#utility.yul\":2657:2689   */\n      slt\n        /* \"#utility.yul\":2654:2773   */\n      iszero\n      tag_212\n      jumpi\n        /* \"#utility.yul\":2692:2771   */\n      tag_213\n      tag_142\n      jump\t// in\n    tag_213:\n        /* \"#utility.yul\":2654:2773   */\n    tag_212:\n        /* \"#utility.yul\":2812:2813   */\n      0x00\n        /* \"#utility.yul\":2837:2890   */\n      tag_214\n        /* \"#utility.yul\":2882:2889   */\n      dup5\n        /* \"#utility.yul\":2873:2879   */\n      dup3\n        /* \"#utility.yul\":2862:2871   */\n      dup6\n        /* \"#utility.yul\":2858:2880   */\n      add\n        /* \"#utility.yul\":2837:2890   */\n      tag_154\n      jump\t// in\n    tag_214:\n        /* \"#utility.yul\":2827:2890   */\n      swap2\n      pop\n        /* \"#utility.yul\":2783:2900   */\n      pop\n        /* \"#utility.yul\":2578:2907   */\n      swap3\n      swap2\n      pop\n      pop\n      jump\t// out\n        /* \"#utility.yul\":2913:3383   */\n    tag_50:\n        /* \"#utility.yul\":2979:2985   */\n      0x00\n        /* \"#utility.yul\":2987:2993   */\n      dup1\n        /* \"#utility.yul\":3036:3038   */\n      0x40\n        /* \"#utility.yul\":3024:3033   */\n      dup4\n        /* \"#utility.yul\":3015:3022   */\n      dup6\n        /* \"#utility.yul\":3011:3034   */\n      sub\n        /* \"#utility.yul\":3007:3039   */\n      slt\n        /* \"#utility.yul\":3004:3123   */\n      iszero\n      tag_216\n      jumpi\n        /* \"#utility.yul\":3042:3121   */\n      tag_217\n      tag_142\n      jump\t// in\n    tag_217:\n        /* \"#utility.yul\":3004:3123   */\n    tag_216:\n        /* \"#utility.yul\":3162:3163   */\n      0x00\n        /* \"#utility.yul\":3187:3238   */\n      tag_218\n        /* \"#utility.yul\":3230:3237   */\n      dup6\n        /* \"#utility.yul\":3221:3227   */\n      dup3\n        /* \"#utility.yul\":3210:3219   */\n      dup7\n        /* \"#utility.yul\":3206:3228   */\n      add\n        /* \"#utility.yul\":3187:3238   */\n      tag_149\n      jump\t// in\n    tag_218:\n        /* \"#utility.yul\":3177:3238   */\n      swap3\n      pop\n        /* \"#utility.yul\":3133:3248   */\n      pop\n        /* \"#utility.yul\":3287:3289   */\n      0x20\n        /* \"#utility.yul\":3313:3366   */\n      tag_219\n        /* \"#utility.yul\":3358:3365   */\n      dup6\n        /* \"#utility.yul\":3349:3355   */\n      dup3\n        /* \"#utility.yul\":3338:3347   */\n      dup7\n        /* \"#utility.yul\":3334:3356   */\n      add\n        /* \"#utility.yul\":3313:3366   */\n      tag_154\n      jump\t// in\n    tag_219:\n        /* \"#utility.yul\":3303:3366   */\n      swap2\n      pop\n        /* \"#utility.yul\":3258:3376   */\n      pop\n        /* \"#utility.yul\":2913:3383   */\n      swap3\n      pop\n      swap3\n      swap1\n      pop\n      jump\t// out\n        /* \"#utility.yul\":3389:3466   */\n    tag_155:\n        /* \"#utility.yul\":3426:3433   */\n      0x00\n        /* \"#utility.yul\":3455:3460   */\n      dup2\n        /* \"#utility.yul\":3444:3460   */\n      swap1\n      pop\n        /* \"#utility.yul\":3389:3466   */\n      swap2\n      swap1\n      pop\n      jump\t// out\n        /* \"#utility.yul\":3472:3594   */\n    tag_156:\n        /* \"#utility.yul\":3545:3569   */\n      tag_222\n        /* \"#utility.yul\":3563:3568   */\n      dup2\n        /* \"#utility.yul\":3545:3569   */\n      tag_155\n      jump\t// in\n    tag_222:\n        /* \"#utility.yul\":3538:3543   */\n      dup2\n        /* \"#utility.yul\":3535:3570   */\n      eq\n        /* \"#utility.yul\":3525:3588   */\n      tag_223\n      jumpi\n        /* \"#utility.yul\":3584:3585   */\n      0x00\n        /* \"#utility.yul\":3581:3582   */\n      dup1\n        /* \"#utility.yul\":3574:3586   */\n      revert\n        /* \"#utility.yul\":3525:3588   */\n    tag_223:\n        /* \"#utility.yul\":3472:3594   */\n      pop\n      jump\t// out\n        /* \"#utility.yul\":3600:3739   */\n    tag_157:\n        /* \"#utility.yul\":3646:3651   */\n      0x00\n        /* \"#utility.yul\":3684:3690   */\n      dup2\n        /* \"#utility.yul\":3671:3691   */\n      calldataload\n        /* \"#utility.yul\":3662:3691   */\n      swap1\n      pop\n        /* \"#utility.yul\":3700:3733   */\n      tag_225\n        /* \"#utility.yul\":3727:3732   */\n      dup2\n        /* \"#utility.yul\":3700:3733   */\n      tag_156\n      jump\t// in\n    tag_225:\n        /* \"#utility.yul\":3600:3739   */\n      swap3\n      swap2\n      pop\n      pop\n      jump\t// out\n        /* \"#utility.yul\":3745:4358   */\n    tag_63:\n        /* \"#utility.yul\":3819:3825   */\n      0x00\n        /* \"#utility.yul\":3827:3833   */\n      dup1\n        /* \"#utility.yul\":3835:3841   */\n      0x00\n        /* \"#utility.yul\":3884:3886   */\n      0x60\n        /* \"#utility.yul\":3872:3881   */\n      dup5\n        /* \"#utility.yul\":3863:3870   */\n      dup7\n        /* \"#utility.yul\":3859:3882   */\n      sub\n        /* \"#utility.yul\":3855:3887   */\n      slt\n        /* \"#utility.yul\":3852:3971   */\n      iszero\n      tag_227\n      jumpi\n        /* \"#utility.yul\":3890:3969   */\n      tag_228\n      tag_142\n      jump\t// in\n    tag_228:\n        /* \"#utility.yul\":3852:3971   */\n    tag_227:\n        /* \"#utility.yul\":4010:4011   */\n      0x00\n        /* \"#utility.yul\":4035:4086   */\n      tag_229\n        /* \"#utility.yul\":4078:4085   */\n      dup7\n        /* \"#utility.yul\":4069:4075   */\n      dup3\n        /* \"#utility.yul\":4058:4067   */\n      dup8\n        /* \"#utility.yul\":4054:4076   */\n      add\n        /* \"#utility.yul\":4035:4086   */\n      tag_149\n      jump\t// in\n    tag_229:\n        /* \"#utility.yul\":4025:4086   */\n      swap4\n      pop\n        /* \"#utility.yul\":3981:4096   */\n      pop\n        /* \"#utility.yul\":4135:4137   */\n      0x20\n        /* \"#utility.yul\":4161:4213   */\n      tag_230\n        /* \"#utility.yul\":4205:4212   */\n      dup7\n        /* \"#utility.yul\":4196:4202   */\n      dup3\n        /* \"#utility.yul\":4185:4194   */\n      dup8\n        /* \"#utility.yul\":4181:4203   */\n      add\n        /* \"#utility.yul\":4161:4213   */\n      tag_146\n      jump\t// in\n    tag_230:\n        /* \"#utility.yul\":4151:4213   */\n      swap3\n      pop\n        /* \"#utility.yul\":4106:4223   */\n      pop\n        /* \"#utility.yul\":4262:4264   */\n      0x40\n        /* \"#utility.yul\":4288:4341   */\n      tag_231\n        /* \"#utility.yul\":4333:4340   */\n      dup7\n        /* \"#utility.yul\":4324:4330   */\n      dup3\n        /* \"#utility.yul\":4313:4322   */\n      dup8\n        /* \"#utility.yul\":4309:4331   */\n      add\n        /* \"#utility.yul\":4288:4341   */\n      tag_157\n      jump\t// in\n    tag_231:\n        /* \"#utility.yul\":4278:4341   */\n      swap2\n      pop\n        /* \"#utility.yul\":4233:4351   */\n      pop\n        /* \"#utility.yul\":3745:4358   */\n      swap3\n      pop\n      swap3\n      pop\n      swap3\n      jump\t// out\n        /* \"#utility.yul\":4364:4479   */\n    tag_158:\n        /* \"#utility.yul\":4449:4472   */\n      tag_233\n        /* \"#utility.yul\":4466:4471   */\n      dup2\n        /* \"#utility.yul\":4449:4472   */\n      tag_144\n      jump\t// in\n    tag_233:\n        /* \"#utility.yul\":4444:4447   */\n      dup3\n        /* \"#utility.yul\":4437:4473   */\n      mstore\n        /* \"#utility.yul\":4364:4479   */\n      pop\n      pop\n      jump\t// out\n        /* \"#utility.yul\":4485:4603   */\n    tag_159:\n        /* \"#utility.yul\":4572:4596   */\n      tag_235\n        /* \"#utility.yul\":4590:4595   */\n      dup2\n        /* \"#utility.yul\":4572:4596   */\n      tag_155\n      jump\t// in\n    tag_235:\n        /* \"#utility.yul\":4567:4570   */\n      dup3\n        /* \"#utility.yul\":4560:4597   */\n      mstore\n        /* \"#utility.yul\":4485:4603   */\n      pop\n      pop\n      jump\t// out\n        /* \"#utility.yul\":4609:5047   */\n    tag_69:\n        /* \"#utility.yul\":4756:4760   */\n      0x00\n        /* \"#utility.yul\":4794:4796   */\n      0x60\n        /* \"#utility.yul\":4783:4792   */\n      dup3\n        /* \"#utility.yul\":4779:4797   */\n      add\n        /* \"#utility.yul\":4771:4797   */\n      swap1\n      pop\n        /* \"#utility.yul\":4807:4876   */\n      tag_237\n        /* \"#utility.yul\":4873:4874   */\n      0x00\n        /* \"#utility.yul\":4862:4871   */\n      dup4\n        /* \"#utility.yul\":4858:4875   */\n      add\n        /* \"#utility.yul\":4849:4855   */\n      dup7\n        /* \"#utility.yul\":4807:4876   */\n      tag_158\n      jump\t// in\n    tag_237:\n        /* \"#utility.yul\":4886:4958   */\n      tag_238\n        /* \"#utility.yul\":4954:4956   */\n      0x20\n        /* \"#utility.yul\":4943:4952   */\n      dup4\n        /* \"#utility.yul\":4939:4957   */\n      add\n        /* \"#utility.yul\":4930:4936   */\n      dup6\n        /* \"#utility.yul\":4886:4958   */\n      tag_159\n      jump\t// in\n    tag_238:\n        /* \"#utility.yul\":4968:5040   */\n      tag_239\n        /* \"#utility.yul\":5036:5038   */\n      0x40\n        /* \"#utility.yul\":5025:5034   */\n      dup4\n        /* \"#utility.yul\":5021:5039   */\n      add\n        /* \"#utility.yul\":5012:5018   */\n      dup5\n        /* \"#utility.yul\":4968:5040   */\n      tag_152\n      jump\t// in\n    tag_239:\n        /* \"#utility.yul\":4609:5047   */\n      swap5\n      swap4\n      pop\n      pop\n      pop\n      pop\n      jump\t// out\n        /* \"#utility.yul\":5053:5222   */\n    tag_160:\n        /* \"#utility.yul\":5137:5148   */\n      0x00\n        /* \"#utility.yul\":5171:5177   */\n      dup3\n        /* \"#utility.yul\":5166:5169   */\n      dup3\n        /* \"#utility.yul\":5159:5178   */\n      mstore\n        /* \"#utility.yul\":5211:5215   */\n      0x20\n        /* \"#utility.yul\":5206:5209   */\n      dup3\n        /* \"#utility.yul\":5202:5216   */\n      add\n        /* \"#utility.yul\":5187:5216   */\n      swap1\n      pop\n        /* \"#utility.yul\":5053:5222   */\n      swap3\n      swap2\n      pop\n      pop\n      jump\t// out\n        /* \"#utility.yul\":5228:5393   */\n    tag_161:\n        /* \"#utility.yul\":5368:5385   */\n      0x496e76616c696420616464726573730000000000000000000000000000000000\n        /* \"#utility.yul\":5364:5365   */\n      0x00\n        /* \"#utility.yul\":5356:5362   */\n      dup3\n        /* \"#utility.yul\":5352:5366   */\n      add\n        /* \"#utility.yul\":5345:5386   */\n      mstore\n        /* \"#utility.yul\":5228:5393   */\n      pop\n      jump\t// out\n        /* \"#utility.yul\":5399:5765   */\n    tag_162:\n        /* \"#utility.yul\":5541:5544   */\n      0x00\n        /* \"#utility.yul\":5562:5629   */\n      tag_243\n        /* \"#utility.yul\":5626:5628   */\n      0x0f\n        /* \"#utility.yul\":5621:5624   */\n      dup4\n        /* \"#utility.yul\":5562:5629   */\n      tag_160\n      jump\t// in\n    tag_243:\n        /* \"#utility.yul\":5555:5629   */\n      swap2\n      pop\n        /* \"#utility.yul\":5638:5731   */\n      tag_244\n        /* \"#utility.yul\":5727:5730   */\n      dup3\n        /* \"#utility.yul\":5638:5731   */\n      tag_161\n      jump\t// in\n    tag_244:\n        /* \"#utility.yul\":5756:5758   */\n      0x20\n        /* \"#utility.yul\":5751:5754   */\n      dup3\n        /* \"#utility.yul\":5747:5759   */\n      add\n        /* \"#utility.yul\":5740:5759   */\n      swap1\n      pop\n        /* \"#utility.yul\":5399:5765   */\n      swap2\n      swap1\n      pop\n      jump\t// out\n        /* \"#utility.yul\":5771:6190   */\n    tag_82:\n        /* \"#utility.yul\":5937:5941   */\n      0x00\n        /* \"#utility.yul\":5975:5977   */\n      0x20\n        /* \"#utility.yul\":5964:5973   */\n      dup3\n        /* \"#utility.yul\":5960:5978   */\n      add\n        /* \"#utility.yul\":5952:5978   */\n      swap1\n      pop\n        /* \"#utility.yul\":6024:6033   */\n      dup2\n        /* \"#utility.yul\":6018:6022   */\n      dup2\n        /* \"#utility.yul\":6014:6034   */\n      sub\n        /* \"#utility.yul\":6010:6011   */\n      0x00\n        /* \"#utility.yul\":5999:6008   */\n      dup4\n        /* \"#utility.yul\":5995:6012   */\n      add\n        /* \"#utility.yul\":5988:6035   */\n      mstore\n        /* \"#utility.yul\":6052:6183   */\n      tag_246\n        /* \"#utility.yul\":6178:6182   */\n      dup2\n        /* \"#utility.yul\":6052:6183   */\n      tag_162\n      jump\t// in\n    tag_246:\n        /* \"#utility.yul\":6044:6183   */\n      swap1\n      pop\n        /* \"#utility.yul\":5771:6190   */\n      swap2\n      swap1\n      pop\n      jump\t// out\n        /* \"#utility.yul\":6196:6366   */\n    tag_163:\n        /* \"#utility.yul\":6336:6358   */\n      0x4572726f7220737461626c6520636f696e206964000000000000000000000000\n        /* \"#utility.yul\":6332:6333   */\n      0x00\n        /* \"#utility.yul\":6324:6330   */\n      dup3\n        /* \"#utility.yul\":6320:6334   */\n      add\n        /* \"#utility.yul\":6313:6359   */\n      mstore\n        /* \"#utility.yul\":6196:6366   */\n      pop\n      jump\t// out\n        /* \"#utility.yul\":6372:6738   */\n    tag_164:\n        /* \"#utility.yul\":6514:6517   */\n      0x00\n        /* \"#utility.yul\":6535:6602   */\n      tag_249\n        /* \"#utility.yul\":6599:6601   */\n      0x14\n        /* \"#utility.yul\":6594:6597   */\n      dup4\n        /* \"#utility.yul\":6535:6602   */\n      tag_160\n      jump\t// in\n    tag_249:\n        /* \"#utility.yul\":6528:6602   */\n      swap2\n      pop\n        /* \"#utility.yul\":6611:6704   */\n      tag_250\n        /* \"#utility.yul\":6700:6703   */\n      dup3\n        /* \"#utility.yul\":6611:6704   */\n      tag_163\n      jump\t// in\n    tag_250:\n        /* \"#utility.yul\":6729:6731   */\n      0x20\n        /* \"#utility.yul\":6724:6727   */\n      dup3\n        /* \"#utility.yul\":6720:6732   */\n      add\n        /* \"#utility.yul\":6713:6732   */\n      swap1\n      pop\n        /* \"#utility.yul\":6372:6738   */\n      swap2\n      swap1\n      pop\n      jump\t// out\n        /* \"#utility.yul\":6744:7163   */\n    tag_91:\n        /* \"#utility.yul\":6910:6914   */\n      0x00\n        /* \"#utility.yul\":6948:6950   */\n      0x20\n        /* \"#utility.yul\":6937:6946   */\n      dup3\n        /* \"#utility.yul\":6933:6951   */\n      add\n        /* \"#utility.yul\":6925:6951   */\n      swap1\n      pop\n        /* \"#utility.yul\":6997:7006   */\n      dup2\n        /* \"#utility.yul\":6991:6995   */\n      dup2\n        /* \"#utility.yul\":6987:7007   */\n      sub\n        /* \"#utility.yul\":6983:6984   */\n      0x00\n        /* \"#utility.yul\":6972:6981   */\n      dup4\n        /* \"#utility.yul\":6968:6985   */\n      add\n        /* \"#utility.yul\":6961:7008   */\n      mstore\n        /* \"#utility.yul\":7025:7156   */\n      tag_252\n        /* \"#utility.yul\":7151:7155   */\n      dup2\n        /* \"#utility.yul\":7025:7156   */\n      tag_164\n      jump\t// in\n    tag_252:\n        /* \"#utility.yul\":7017:7156   */\n      swap1\n      pop\n        /* \"#utility.yul\":6744:7163   */\n      swap2\n      swap1\n      pop\n      jump\t// out\n        /* \"#utility.yul\":7169:7312   */\n    tag_165:\n        /* \"#utility.yul\":7226:7231   */\n      0x00\n        /* \"#utility.yul\":7257:7263   */\n      dup2\n        /* \"#utility.yul\":7251:7264   */\n      mload\n        /* \"#utility.yul\":7242:7264   */\n      swap1\n      pop\n        /* \"#utility.yul\":7273:7306   */\n      tag_254\n        /* \"#utility.yul\":7300:7305   */\n      dup2\n        /* \"#utility.yul\":7273:7306   */\n      tag_156\n      jump\t// in\n    tag_254:\n        /* \"#utility.yul\":7169:7312   */\n      swap3\n      swap2\n      pop\n      pop\n      jump\t// out\n        /* \"#utility.yul\":7318:7669   */\n    tag_97:\n        /* \"#utility.yul\":7388:7394   */\n      0x00\n        /* \"#utility.yul\":7437:7439   */\n      0x20\n        /* \"#utility.yul\":7425:7434   */\n      dup3\n        /* \"#utility.yul\":7416:7423   */\n      dup5\n        /* \"#utility.yul\":7412:7435   */\n      sub\n        /* \"#utility.yul\":7408:7440   */\n      slt\n        /* \"#utility.yul\":7405:7524   */\n      iszero\n      tag_256\n      jumpi\n        /* \"#utility.yul\":7443:7522   */\n      tag_257\n      tag_142\n      jump\t// in\n    tag_257:\n        /* \"#utility.yul\":7405:7524   */\n    tag_256:\n        /* \"#utility.yul\":7563:7564   */\n      0x00\n        /* \"#utility.yul\":7588:7652   */\n      tag_258\n        /* \"#utility.yul\":7644:7651   */\n      dup5\n        /* \"#utility.yul\":7635:7641   */\n      dup3\n        /* \"#utility.yul\":7624:7633   */\n      dup6\n        /* \"#utility.yul\":7620:7642   */\n      add\n        /* \"#utility.yul\":7588:7652   */\n      tag_165\n      jump\t// in\n    tag_258:\n        /* \"#utility.yul\":7578:7652   */\n      swap2\n      pop\n        /* \"#utility.yul\":7534:7662   */\n      pop\n        /* \"#utility.yul\":7318:7669   */\n      swap3\n      swap2\n      pop\n      pop\n      jump\t// out\n        /* \"#utility.yul\":7675:8007   */\n    tag_99:\n        /* \"#utility.yul\":7796:7800   */\n      0x00\n        /* \"#utility.yul\":7834:7836   */\n      0x40\n        /* \"#utility.yul\":7823:7832   */\n      dup3\n        /* \"#utility.yul\":7819:7837   */\n      add\n        /* \"#utility.yul\":7811:7837   */\n      swap1\n      pop\n        /* \"#utility.yul\":7847:7918   */\n      tag_260\n        /* \"#utility.yul\":7915:7916   */\n      0x00\n        /* \"#utility.yul\":7904:7913   */\n      dup4\n        /* \"#utility.yul\":7900:7917   */\n      add\n        /* \"#utility.yul\":7891:7897   */\n      dup6\n        /* \"#utility.yul\":7847:7918   */\n      tag_152\n      jump\t// in\n    tag_260:\n        /* \"#utility.yul\":7928:8000   */\n      tag_261\n        /* \"#utility.yul\":7996:7998   */\n      0x20\n        /* \"#utility.yul\":7985:7994   */\n      dup4\n        /* \"#utility.yul\":7981:7999   */\n      add\n        /* \"#utility.yul\":7972:7978   */\n      dup5\n        /* \"#utility.yul\":7928:8000   */\n      tag_159\n      jump\t// in\n    tag_261:\n        /* \"#utility.yul\":7675:8007   */\n      swap4\n      swap3\n      pop\n      pop\n      pop\n      jump\t// out\n        /* \"#utility.yul\":8013:8103   */\n    tag_166:\n        /* \"#utility.yul\":8047:8054   */\n      0x00\n        /* \"#utility.yul\":8090:8095   */\n      dup2\n        /* \"#utility.yul\":8083:8096   */\n      iszero\n        /* \"#utility.yul\":8076:8097   */\n      iszero\n        /* \"#utility.yul\":8065:8097   */\n      swap1\n      pop\n        /* \"#utility.yul\":8013:8103   */\n      swap2\n      swap1\n      pop\n      jump\t// out\n        /* \"#utility.yul\":8109:8225   */\n    tag_167:\n        /* \"#utility.yul\":8179:8200   */\n      tag_264\n        /* \"#utility.yul\":8194:8199   */\n      dup2\n        /* \"#utility.yul\":8179:8200   */\n      tag_166\n      jump\t// in\n    tag_264:\n        /* \"#utility.yul\":8172:8177   */\n      dup2\n        /* \"#utility.yul\":8169:8201   */\n      eq\n        /* \"#utility.yul\":8159:8219   */\n      tag_265\n      jumpi\n        /* \"#utility.yul\":8215:8216   */\n      0x00\n        /* \"#utility.yul\":8212:8213   */\n      dup1\n        /* \"#utility.yul\":8205:8217   */\n      revert\n        /* \"#utility.yul\":8159:8219   */\n    tag_265:\n        /* \"#utility.yul\":8109:8225   */\n      pop\n      jump\t// out\n        /* \"#utility.yul\":8231:8368   */\n    tag_168:\n        /* \"#utility.yul\":8285:8290   */\n      0x00\n        /* \"#utility.yul\":8316:8322   */\n      dup2\n        /* \"#utility.yul\":8310:8323   */\n      mload\n        /* \"#utility.yul\":8301:8323   */\n      swap1\n      pop\n        /* \"#utility.yul\":8332:8362   */\n      tag_267\n        /* \"#utility.yul\":8356:8361   */\n      dup2\n        /* \"#utility.yul\":8332:8362   */\n      tag_167\n      jump\t// in\n    tag_267:\n        /* \"#utility.yul\":8231:8368   */\n      swap3\n      swap2\n      pop\n      pop\n      jump\t// out\n        /* \"#utility.yul\":8374:8719   */\n    tag_104:\n        /* \"#utility.yul\":8441:8447   */\n      0x00\n        /* \"#utility.yul\":8490:8492   */\n      0x20\n        /* \"#utility.yul\":8478:8487   */\n      dup3\n        /* \"#utility.yul\":8469:8476   */\n      dup5\n        /* \"#utility.yul\":8465:8488   */\n      sub\n        /* \"#utility.yul\":8461:8493   */\n      slt\n        /* \"#utility.yul\":8458:8577   */\n      iszero\n      tag_269\n      jumpi\n        /* \"#utility.yul\":8496:8575   */\n      tag_270\n      tag_142\n      jump\t// in\n    tag_270:\n        /* \"#utility.yul\":8458:8577   */\n    tag_269:\n        /* \"#utility.yul\":8616:8617   */\n      0x00\n        /* \"#utility.yul\":8641:8702   */\n      tag_271\n        /* \"#utility.yul\":8694:8701   */\n      dup5\n        /* \"#utility.yul\":8685:8691   */\n      dup3\n        /* \"#utility.yul\":8674:8683   */\n      dup6\n        /* \"#utility.yul\":8670:8692   */\n      add\n        /* \"#utility.yul\":8641:8702   */\n      tag_168\n      jump\t// in\n    tag_271:\n        /* \"#utility.yul\":8631:8702   */\n      swap2\n      pop\n        /* \"#utility.yul\":8587:8712   */\n      pop\n        /* \"#utility.yul\":8374:8719   */\n      swap3\n      swap2\n      pop\n      pop\n      jump\t// out\n        /* \"#utility.yul\":8725:8950   */\n    tag_169:\n        /* \"#utility.yul\":8865:8899   */\n      0x4f776e61626c653a206e6577206f776e657220697320746865207a65726f2061\n        /* \"#utility.yul\":8861:8862   */\n      0x00\n        /* \"#utility.yul\":8853:8859   */\n      dup3\n        /* \"#utility.yul\":8849:8863   */\n      add\n        /* \"#utility.yul\":8842:8900   */\n      mstore\n        /* \"#utility.yul\":8934:8942   */\n      0x6464726573730000000000000000000000000000000000000000000000000000\n        /* \"#utility.yul\":8929:8931   */\n      0x20\n        /* \"#utility.yul\":8921:8927   */\n      dup3\n        /* \"#utility.yul\":8917:8932   */\n      add\n        /* \"#utility.yul\":8910:8943   */\n      mstore\n        /* \"#utility.yul\":8725:8950   */\n      pop\n      jump\t// out\n        /* \"#utility.yul\":8956:9322   */\n    tag_170:\n        /* \"#utility.yul\":9098:9101   */\n      0x00\n        /* \"#utility.yul\":9119:9186   */\n      tag_274\n        /* \"#utility.yul\":9183:9185   */\n      0x26\n        /* \"#utility.yul\":9178:9181   */\n      dup4\n        /* \"#utility.yul\":9119:9186   */\n      tag_160\n      jump\t// in\n    tag_274:\n        /* \"#utility.yul\":9112:9186   */\n      swap2\n      pop\n        /* \"#utility.yul\":9195:9288   */\n      tag_275\n        /* \"#utility.yul\":9284:9287   */\n      dup3\n        /* \"#utility.yul\":9195:9288   */\n      tag_169\n      jump\t// in\n    tag_275:\n        /* \"#utility.yul\":9313:9315   */\n      0x40\n        /* \"#utility.yul\":9308:9311   */\n      dup3\n        /* \"#utility.yul\":9304:9316   */\n      add\n        /* \"#utility.yul\":9297:9316   */\n      swap1\n      pop\n        /* \"#utility.yul\":8956:9322   */\n      swap2\n      swap1\n      pop\n      jump\t// out\n        /* \"#utility.yul\":9328:9747   */\n    tag_110:\n        /* \"#utility.yul\":9494:9498   */\n      0x00\n        /* \"#utility.yul\":9532:9534   */\n      0x20\n        /* \"#utility.yul\":9521:9530   */\n      dup3\n        /* \"#utility.yul\":9517:9535   */\n      add\n        /* \"#utility.yul\":9509:9535   */\n      swap1\n      pop\n        /* \"#utility.yul\":9581:9590   */\n      dup2\n        /* \"#utility.yul\":9575:9579   */\n      dup2\n        /* \"#utility.yul\":9571:9591   */\n      sub\n        /* \"#utility.yul\":9567:9568   */\n      0x00\n        /* \"#utility.yul\":9556:9565   */\n      dup4\n        /* \"#utility.yul\":9552:9569   */\n      add\n        /* \"#utility.yul\":9545:9592   */\n      mstore\n        /* \"#utility.yul\":9609:9740   */\n      tag_277\n        /* \"#utility.yul\":9735:9739   */\n      dup2\n        /* \"#utility.yul\":9609:9740   */\n      tag_170\n      jump\t// in\n    tag_277:\n        /* \"#utility.yul\":9601:9740   */\n      swap1\n      pop\n        /* \"#utility.yul\":9328:9747   */\n      swap2\n      swap1\n      pop\n      jump\t// out\n        /* \"#utility.yul\":9753:10085   */\n    tag_116:\n        /* \"#utility.yul\":9874:9878   */\n      0x00\n        /* \"#utility.yul\":9912:9914   */\n      0x40\n        /* \"#utility.yul\":9901:9910   */\n      dup3\n        /* \"#utility.yul\":9897:9915   */\n      add\n        /* \"#utility.yul\":9889:9915   */\n      swap1\n      pop\n        /* \"#utility.yul\":9925:9996   */\n      tag_279\n        /* \"#utility.yul\":9993:9994   */\n      0x00\n        /* \"#utility.yul\":9982:9991   */\n      dup4\n        /* \"#utility.yul\":9978:9995   */\n      add\n        /* \"#utility.yul\":9969:9975   */\n      dup6\n        /* \"#utility.yul\":9925:9996   */\n      tag_152\n      jump\t// in\n    tag_279:\n        /* \"#utility.yul\":10006:10078   */\n      tag_280\n        /* \"#utility.yul\":10074:10076   */\n      0x20\n        /* \"#utility.yul\":10063:10072   */\n      dup4\n        /* \"#utility.yul\":10059:10077   */\n      add\n        /* \"#utility.yul\":10050:10056   */\n      dup5\n        /* \"#utility.yul\":10006:10078   */\n      tag_152\n      jump\t// in\n    tag_280:\n        /* \"#utility.yul\":9753:10085   */\n      swap4\n      swap3\n      pop\n      pop\n      pop\n      jump\t// out\n        /* \"#utility.yul\":10091:10256   */\n    tag_171:\n        /* \"#utility.yul\":10231:10248   */\n      0x4572726f7220616c6c6f77616e63650000000000000000000000000000000000\n        /* \"#utility.yul\":10227:10228   */\n      0x00\n        /* \"#utility.yul\":10219:10225   */\n      dup3\n        /* \"#utility.yul\":10215:10229   */\n      add\n        /* \"#utility.yul\":10208:10249   */\n      mstore\n        /* \"#utility.yul\":10091:10256   */\n      pop\n      jump\t// out\n        /* \"#utility.yul\":10262:10628   */\n    tag_172:\n        /* \"#utility.yul\":10404:10407   */\n      0x00\n        /* \"#utility.yul\":10425:10492   */\n      tag_283\n        /* \"#utility.yul\":10489:10491   */\n      0x0f\n        /* \"#utility.yul\":10484:10487   */\n      dup4\n        /* \"#utility.yul\":10425:10492   */\n      tag_160\n      jump\t// in\n    tag_283:\n        /* \"#utility.yul\":10418:10492   */\n      swap2\n      pop\n        /* \"#utility.yul\":10501:10594   */\n      tag_284\n        /* \"#utility.yul\":10590:10593   */\n      dup3\n        /* \"#utility.yul\":10501:10594   */\n      tag_171\n      jump\t// in\n    tag_284:\n        /* \"#utility.yul\":10619:10621   */\n      0x20\n        /* \"#utility.yul\":10614:10617   */\n      dup3\n        /* \"#utility.yul\":10610:10622   */\n      add\n        /* \"#utility.yul\":10603:10622   */\n      swap1\n      pop\n        /* \"#utility.yul\":10262:10628   */\n      swap2\n      swap1\n      pop\n      jump\t// out\n        /* \"#utility.yul\":10634:11053   */\n    tag_123:\n        /* \"#utility.yul\":10800:10804   */\n      0x00\n        /* \"#utility.yul\":10838:10840   */\n      0x20\n        /* \"#utility.yul\":10827:10836   */\n      dup3\n        /* \"#utility.yul\":10823:10841   */\n      add\n        /* \"#utility.yul\":10815:10841   */\n      swap1\n      pop\n        /* \"#utility.yul\":10887:10896   */\n      dup2\n        /* \"#utility.yul\":10881:10885   */\n      dup2\n        /* \"#utility.yul\":10877:10897   */\n      sub\n        /* \"#utility.yul\":10873:10874   */\n      0x00\n        /* \"#utility.yul\":10862:10871   */\n      dup4\n        /* \"#utility.yul\":10858:10875   */\n      add\n        /* \"#utility.yul\":10851:10898   */\n      mstore\n        /* \"#utility.yul\":10915:11046   */\n      tag_286\n        /* \"#utility.yul\":11041:11045   */\n      dup2\n        /* \"#utility.yul\":10915:11046   */\n      tag_172\n      jump\t// in\n    tag_286:\n        /* \"#utility.yul\":10907:11046   */\n      swap1\n      pop\n        /* \"#utility.yul\":10634:11053   */\n      swap2\n      swap1\n      pop\n      jump\t// out\n        /* \"#utility.yul\":11059:11501   */\n    tag_125:\n        /* \"#utility.yul\":11208:11212   */\n      0x00\n        /* \"#utility.yul\":11246:11248   */\n      0x60\n        /* \"#utility.yul\":11235:11244   */\n      dup3\n        /* \"#utility.yul\":11231:11249   */\n      add\n        /* \"#utility.yul\":11223:11249   */\n      swap1\n      pop\n        /* \"#utility.yul\":11259:11330   */\n      tag_288\n        /* \"#utility.yul\":11327:11328   */\n      0x00\n        /* \"#utility.yul\":11316:11325   */\n      dup4\n        /* \"#utility.yul\":11312:11329   */\n      add\n        /* \"#utility.yul\":11303:11309   */\n      dup7\n        /* \"#utility.yul\":11259:11330   */\n      tag_152\n      jump\t// in\n    tag_288:\n        /* \"#utility.yul\":11340:11412   */\n      tag_289\n        /* \"#utility.yul\":11408:11410   */\n      0x20\n        /* \"#utility.yul\":11397:11406   */\n      dup4\n        /* \"#utility.yul\":11393:11411   */\n      add\n        /* \"#utility.yul\":11384:11390   */\n      dup6\n        /* \"#utility.yul\":11340:11412   */\n      tag_152\n      jump\t// in\n    tag_289:\n        /* \"#utility.yul\":11422:11494   */\n      tag_290\n        /* \"#utility.yul\":11490:11492   */\n      0x40\n        /* \"#utility.yul\":11479:11488   */\n      dup4\n        /* \"#utility.yul\":11475:11493   */\n      add\n        /* \"#utility.yul\":11466:11472   */\n      dup5\n        /* \"#utility.yul\":11422:11494   */\n      tag_159\n      jump\t// in\n    tag_290:\n        /* \"#utility.yul\":11059:11501   */\n      swap5\n      swap4\n      pop\n      pop\n      pop\n      pop\n      jump\t// out\n        /* \"#utility.yul\":11507:12056   */\n    tag_131:\n        /* \"#utility.yul\":11682:11686   */\n      0x00\n        /* \"#utility.yul\":11720:11723   */\n      0x80\n        /* \"#utility.yul\":11709:11718   */\n      dup3\n        /* \"#utility.yul\":11705:11724   */\n      add\n        /* \"#utility.yul\":11697:11724   */\n      swap1\n      pop\n        /* \"#utility.yul\":11734:11803   */\n      tag_292\n        /* \"#utility.yul\":11800:11801   */\n      0x00\n        /* \"#utility.yul\":11789:11798   */\n      dup4\n        /* \"#utility.yul\":11785:11802   */\n      add\n        /* \"#utility.yul\":11776:11782   */\n      dup8\n        /* \"#utility.yul\":11734:11803   */\n      tag_158\n      jump\t// in\n    tag_292:\n        /* \"#utility.yul\":11813:11885   */\n      tag_293\n        /* \"#utility.yul\":11881:11883   */\n      0x20\n        /* \"#utility.yul\":11870:11879   */\n      dup4\n        /* \"#utility.yul\":11866:11884   */\n      add\n        /* \"#utility.yul\":11857:11863   */\n      dup7\n        /* \"#utility.yul\":11813:11885   */\n      tag_152\n      jump\t// in\n    tag_293:\n        /* \"#utility.yul\":11895:11967   */\n      tag_294\n        /* \"#utility.yul\":11963:11965   */\n      0x40\n        /* \"#utility.yul\":11952:11961   */\n      dup4\n        /* \"#utility.yul\":11948:11966   */\n      add\n        /* \"#utility.yul\":11939:11945   */\n      dup6\n        /* \"#utility.yul\":11895:11967   */\n      tag_159\n      jump\t// in\n    tag_294:\n        /* \"#utility.yul\":11977:12049   */\n      tag_295\n        /* \"#utility.yul\":12045:12047   */\n      0x60\n        /* \"#utility.yul\":12034:12043   */\n      dup4\n        /* \"#utility.yul\":12030:12048   */\n      add\n        /* \"#utility.yul\":12021:12027   */\n      dup5\n        /* \"#utility.yul\":11977:12049   */\n      tag_152\n      jump\t// in\n    tag_295:\n        /* \"#utility.yul\":11507:12056   */\n      swap6\n      swap5\n      pop\n      pop\n      pop\n      pop\n      pop\n      jump\t// out\n        /* \"#utility.yul\":12062:12244   */\n    tag_173:\n        /* \"#utility.yul\":12202:12236   */\n      0x4f776e61626c653a2063616c6c6572206973206e6f7420746865206f776e6572\n        /* \"#utility.yul\":12198:12199   */\n      0x00\n        /* \"#utility.yul\":12190:12196   */\n      dup3\n        /* \"#utility.yul\":12186:12200   */\n      add\n        /* \"#utility.yul\":12179:12237   */\n      mstore\n        /* \"#utility.yul\":12062:12244   */\n      pop\n      jump\t// out\n        /* \"#utility.yul\":12250:12616   */\n    tag_174:\n        /* \"#utility.yul\":12392:12395   */\n      0x00\n        /* \"#utility.yul\":12413:12480   */\n      tag_298\n        /* \"#utility.yul\":12477:12479   */\n      0x20\n        /* \"#utility.yul\":12472:12475   */\n      dup4\n        /* \"#utility.yul\":12413:12480   */\n      tag_160\n      jump\t// in\n    tag_298:\n        /* \"#utility.yul\":12406:12480   */\n      swap2\n      pop\n        /* \"#utility.yul\":12489:12582   */\n      tag_299\n        /* \"#utility.yul\":12578:12581   */\n      dup3\n        /* \"#utility.yul\":12489:12582   */\n      tag_173\n      jump\t// in\n    tag_299:\n        /* \"#utility.yul\":12607:12609   */\n      0x20\n        /* \"#utility.yul\":12602:12605   */\n      dup3\n        /* \"#utility.yul\":12598:12610   */\n      add\n        /* \"#utility.yul\":12591:12610   */\n      swap1\n      pop\n        /* \"#utility.yul\":12250:12616   */\n      swap2\n      swap1\n      pop\n      jump\t// out\n        /* \"#utility.yul\":12622:13041   */\n    tag_138:\n        /* \"#utility.yul\":12788:12792   */\n      0x00\n        /* \"#utility.yul\":12826:12828   */\n      0x20\n        /* \"#utility.yul\":12815:12824   */\n      dup3\n        /* \"#utility.yul\":12811:12829   */\n      add\n        /* \"#utility.yul\":12803:12829   */\n      swap1\n      pop\n        /* \"#utility.yul\":12875:12884   */\n      dup2\n        /* \"#utility.yul\":12869:12873   */\n      dup2\n        /* \"#utility.yul\":12865:12885   */\n      sub\n        /* \"#utility.yul\":12861:12862   */\n      0x00\n        /* \"#utility.yul\":12850:12859   */\n      dup4\n        /* \"#utility.yul\":12846:12863   */\n      add\n        /* \"#utility.yul\":12839:12886   */\n      mstore\n        /* \"#utility.yul\":12903:13034   */\n      tag_301\n        /* \"#utility.yul\":13029:13033   */\n      dup2\n        /* \"#utility.yul\":12903:13034   */\n      tag_174\n      jump\t// in\n    tag_301:\n        /* \"#utility.yul\":12895:13034   */\n      swap1\n      pop\n        /* \"#utility.yul\":12622:13041   */\n      swap2\n      swap1\n      pop\n      jump\t// out\n\n    auxdata: 0xa2646970667358221220d7475c46d368ad6cf7845b4135de64819943e2de2fb652234070a1982581734a64736f6c63430008090033\n}\n",
				"bytecode": {
					"linkReferences": {},
					"object": "608060405234801561001057600080fd5b5061002d61002261007360201b60201c565b61007b60201b60201c565b33600160006101000a81548173ffffffffffffffffffffffffffffffffffffffff021916908373ffffffffffffffffffffffffffffffffffffffff16021790555061013f565b600033905090565b60008060009054906101000a900473ffffffffffffffffffffffffffffffffffffffff169050816000806101000a81548173ffffffffffffffffffffffffffffffffffffffff021916908373ffffffffffffffffffffffffffffffffffffffff1602179055508173ffffffffffffffffffffffffffffffffffffffff168173ffffffffffffffffffffffffffffffffffffffff167f8be0079c531659141344cd1fd0a4f28419497f9722a3daafe3b4186f6b6457e060405160405180910390a35050565b61127b8061014e6000396000f3fe6080604052600436106100955760003560e01c8063a18f6fb511610059578063a18f6fb5146101cd578063c2081295146101f6578063ea0e2d6a1461021f578063f2fde38b14610248578063f7745a631461027157610105565b80631edbe00e14610107578063262f8e8614610123578063715018a6146101605780637455bf54146101775780638da5cb5b146101a257610105565b3661010557600160009054906101000a900473ffffffffffffffffffffffffffffffffffffffff1673ffffffffffffffffffffffffffffffffffffffff166108fc349081150290604051600060405180830381858888f19350505050158015610102573d6000803e3d6000fd5b50005b005b610121600480360381019061011c9190610c17565b61029a565b005b34801561012f57600080fd5b5061014a60048036038101906101459190610c7d565b610341565b6040516101579190610ceb565b60405180910390f35b34801561016c57600080fd5b50610175610374565b005b34801561018357600080fd5b5061018c610388565b6040516101999190610ceb565b60405180910390f35b3480156101ae57600080fd5b506101b76103ae565b6040516101c49190610ceb565b60405180910390f35b3480156101d957600080fd5b506101f460048036038101906101ef9190610d32565b6103d7565b005b34801561020257600080fd5b5061021d60048036038101906102189190610d5f565b610493565b005b34801561022b57600080fd5b5061024660048036038101906102419190610c7d565b6104f7565b005b34801561025457600080fd5b5061026f600480360381019061026a9190610d32565b610728565b005b34801561027d57600080fd5b5061029860048036038101906102939190610dd5565b6107ac565b005b600160009054906101000a900473ffffffffffffffffffffffffffffffffffffffff1673ffffffffffffffffffffffffffffffffffffffff166108fc349081150290604051600060405180830381858888f19350505050158015610302573d6000803e3d6000fd5b507fc8b771a21071abadcd210f45830e9ce8ddc6d58123e705183271e1bebf656c9581343360405161033693929190610e46565b60405180910390a150565b60026020528060005260406000206000915054906101000a900473ffffffffffffffffffffffffffffffffffffffff1681565b61037c610a8e565b6103866000610b0c565b565b600160009054906101000a900473ffffffffffffffffffffffffffffffffffffffff1681565b60008060009054906101000a900473ffffffffffffffffffffffffffffffffffffffff16905090565b6103df610a8e565b600073ffffffffffffffffffffffffffffffffffffffff168173ffffffffffffffffffffffffffffffffffffffff16141561044f576040517f08c379a000000000000000000000000000000000000000000000000000000000815260040161044690610eda565b60405180910390fd5b80600160006101000a81548173ffffffffffffffffffffffffffffffffffffffff021916908373ffffffffffffffffffffffffffffffffffffffff16021790555050565b61049b610a8e565b80600260008460ff1660ff16815260200190815260200160002060006101000a81548173ffffffffffffffffffffffffffffffffffffffff021916908373ffffffffffffffffffffffffffffffffffffffff1602179055505050565b6104ff610a8e565b600073ffffffffffffffffffffffffffffffffffffffff16600260008360ff1660ff16815260200190815260200160002060009054906101000a900473ffffffffffffffffffffffffffffffffffffffff1673ffffffffffffffffffffffffffffffffffffffff1614156105a8576040517f08c379a000000000000000000000000000000000000000000000000000000000815260040161059f90610f46565b60405180910390fd5b6000600260008360ff1660ff16815260200190815260200160002060009054906101000a900473ffffffffffffffffffffffffffffffffffffffff16905060008173ffffffffffffffffffffffffffffffffffffffff166370a08231306040518263ffffffff1660e01b81526004016106219190610ceb565b60206040518083038186803b15801561063957600080fd5b505afa15801561064d573d6000803e3d6000fd5b505050506040513d601f19601f820116820180604052508101906106719190610f7b565b90508173ffffffffffffffffffffffffffffffffffffffff1663a9059cbb600160009054906101000a900473ffffffffffffffffffffffffffffffffffffffff16836040518363ffffffff1660e01b81526004016106d0929190610fa8565b602060405180830381600087803b1580156106ea57600080fd5b505af11580156106fe573d6000803e3d6000fd5b505050506040513d601f19601f820116820180604052508101906107229190611009565b50505050565b610730610a8e565b600073ffffffffffffffffffffffffffffffffffffffff168173ffffffffffffffffffffffffffffffffffffffff1614156107a0576040517f08c379a0000000000000000000000000000000000000000000000000000000008152600401610797906110a8565b60405180910390fd5b6107a981610b0c565b50565b600073ffffffffffffffffffffffffffffffffffffffff16600260008560ff1660ff16815260200190815260200160002060009054906101000a900473ffffffffffffffffffffffffffffffffffffffff1673ffffffffffffffffffffffffffffffffffffffff161415610855576040517f08c379a000000000000000000000000000000000000000000000000000000000815260040161084c90610f46565b60405180910390fd5b6000600260008560ff1660ff16815260200190815260200160002060009054906101000a900473ffffffffffffffffffffffffffffffffffffffff169050818173ffffffffffffffffffffffffffffffffffffffff1663dd62ed3e33306040518363ffffffff1660e01b81526004016108cf9291906110c8565b60206040518083038186803b1580156108e757600080fd5b505afa1580156108fb573d6000803e3d6000fd5b505050506040513d601f19601f8201168201806040525081019061091f9190610f7b565b1015610960576040517f08c379a00000000000000000000000000000000000000000000000000000000081526004016109579061113d565b60405180910390fd5b8073ffffffffffffffffffffffffffffffffffffffff166323b872dd33600160009054906101000a900473ffffffffffffffffffffffffffffffffffffffff16856040518463ffffffff1660e01b81526004016109bf9392919061115d565b602060405180830381600087803b1580156109d957600080fd5b505af11580156109ed573d6000803e3d6000fd5b505050506040513d601f19601f82011682018060405250810190610a119190611009565b507f72c1e167858816e025e7a4e646cded5df40001001b8ea94e59272b63321ef8fd83600260008760ff1660ff16815260200190815260200160002060009054906101000a900473ffffffffffffffffffffffffffffffffffffffff168433604051610a809493929190611194565b60405180910390a150505050565b610a96610bd0565b73ffffffffffffffffffffffffffffffffffffffff16610ab46103ae565b73ffffffffffffffffffffffffffffffffffffffff1614610b0a576040517f08c379a0000000000000000000000000000000000000000000000000000000008152600401610b0190611225565b60405180910390fd5b565b60008060009054906101000a900473ffffffffffffffffffffffffffffffffffffffff169050816000806101000a81548173ffffffffffffffffffffffffffffffffffffffff021916908373ffffffffffffffffffffffffffffffffffffffff1602179055508173ffffffffffffffffffffffffffffffffffffffff168173ffffffffffffffffffffffffffffffffffffffff167f8be0079c531659141344cd1fd0a4f28419497f9722a3daafe3b4186f6b6457e060405160405180910390a35050565b600033905090565b600080fd5b600061ffff82169050919050565b610bf481610bdd565b8114610bff57600080fd5b50565b600081359050610c1181610beb565b92915050565b600060208284031215610c2d57610c2c610bd8565b5b6000610c3b84828501610c02565b91505092915050565b600060ff82169050919050565b610c5a81610c44565b8114610c6557600080fd5b50565b600081359050610c7781610c51565b92915050565b600060208284031215610c9357610c92610bd8565b5b6000610ca184828501610c68565b91505092915050565b600073ffffffffffffffffffffffffffffffffffffffff82169050919050565b6000610cd582610caa565b9050919050565b610ce581610cca565b82525050565b6000602082019050610d006000830184610cdc565b92915050565b610d0f81610cca565b8114610d1a57600080fd5b50565b600081359050610d2c81610d06565b92915050565b600060208284031215610d4857610d47610bd8565b5b6000610d5684828501610d1d565b91505092915050565b60008060408385031215610d7657610d75610bd8565b5b6000610d8485828601610c68565b9250506020610d9585828601610d1d565b9150509250929050565b6000819050919050565b610db281610d9f565b8114610dbd57600080fd5b50565b600081359050610dcf81610da9565b92915050565b600080600060608486031215610dee57610ded610bd8565b5b6000610dfc86828701610c68565b9350506020610e0d86828701610c02565b9250506040610e1e86828701610dc0565b9150509250925092565b610e3181610bdd565b82525050565b610e4081610d9f565b82525050565b6000606082019050610e5b6000830186610e28565b610e686020830185610e37565b610e756040830184610cdc565b949350505050565b600082825260208201905092915050565b7f496e76616c696420616464726573730000000000000000000000000000000000600082015250565b6000610ec4600f83610e7d565b9150610ecf82610e8e565b602082019050919050565b60006020820190508181036000830152610ef381610eb7565b9050919050565b7f4572726f7220737461626c6520636f696e206964000000000000000000000000600082015250565b6000610f30601483610e7d565b9150610f3b82610efa565b602082019050919050565b60006020820190508181036000830152610f5f81610f23565b9050919050565b600081519050610f7581610da9565b92915050565b600060208284031215610f9157610f90610bd8565b5b6000610f9f84828501610f66565b91505092915050565b6000604082019050610fbd6000830185610cdc565b610fca6020830184610e37565b9392505050565b60008115159050919050565b610fe681610fd1565b8114610ff157600080fd5b50565b60008151905061100381610fdd565b92915050565b60006020828403121561101f5761101e610bd8565b5b600061102d84828501610ff4565b91505092915050565b7f4f776e61626c653a206e6577206f776e657220697320746865207a65726f206160008201527f6464726573730000000000000000000000000000000000000000000000000000602082015250565b6000611092602683610e7d565b915061109d82611036565b604082019050919050565b600060208201905081810360008301526110c181611085565b9050919050565b60006040820190506110dd6000830185610cdc565b6110ea6020830184610cdc565b9392505050565b7f4572726f7220616c6c6f77616e63650000000000000000000000000000000000600082015250565b6000611127600f83610e7d565b9150611132826110f1565b602082019050919050565b600060208201905081810360008301526111568161111a565b9050919050565b60006060820190506111726000830186610cdc565b61117f6020830185610cdc565b61118c6040830184610e37565b949350505050565b60006080820190506111a96000830187610e28565b6111b66020830186610cdc565b6111c36040830185610e37565b6111d06060830184610cdc565b95945050505050565b7f4f776e61626c653a2063616c6c6572206973206e6f7420746865206f776e6572600082015250565b600061120f602083610e7d565b915061121a826111d9565b602082019050919050565b6000602082019050818103600083015261123e81611202565b905091905056fea2646970667358221220d7475c46d368ad6cf7845b4135de64819943e2de2fb652234070a1982581734a64736f6c63430008090033",
					"opcodes": "PUSH1 0x80 PUSH1 0x40 MSTORE CALLVALUE DUP1 ISZERO PUSH2 0x10 JUMPI PUSH1 0x0 DUP1 REVERT JUMPDEST POP PUSH2 0x2D PUSH2 0x22 PUSH2 0x73 PUSH1 0x20 SHL PUSH1 0x20 SHR JUMP JUMPDEST PUSH2 0x7B PUSH1 0x20 SHL PUSH1 0x20 SHR JUMP JUMPDEST CALLER PUSH1 0x1 PUSH1 0x0 PUSH2 0x100 EXP DUP2 SLOAD DUP2 PUSH20 0xFFFFFFFFFFFFFFFFFFFFFFFFFFFFFFFFFFFFFFFF MUL NOT AND SWAP1 DUP4 PUSH20 0xFFFFFFFFFFFFFFFFFFFFFFFFFFFFFFFFFFFFFFFF AND MUL OR SWAP1 SSTORE POP PUSH2 0x13F JUMP JUMPDEST PUSH1 0x0 CALLER SWAP1 POP SWAP1 JUMP JUMPDEST PUSH1 0x0 DUP1 PUSH1 0x0 SWAP1 SLOAD SWAP1 PUSH2 0x100 EXP SWAP1 DIV PUSH20 0xFFFFFFFFFFFFFFFFFFFFFFFFFFFFFFFFFFFFFFFF AND SWAP1 POP DUP2 PUSH1 0x0 DUP1 PUSH2 0x100 EXP DUP2 SLOAD DUP2 PUSH20 0xFFFFFFFFFFFFFFFFFFFFFFFFFFFFFFFFFFFFFFFF MUL NOT AND SWAP1 DUP4 PUSH20 0xFFFFFFFFFFFFFFFFFFFFFFFFFFFFFFFFFFFFFFFF AND MUL OR SWAP1 SSTORE POP DUP2 PUSH20 0xFFFFFFFFFFFFFFFFFFFFFFFFFFFFFFFFFFFFFFFF AND DUP2 PUSH20 0xFFFFFFFFFFFFFFFFFFFFFFFFFFFFFFFFFFFFFFFF AND PUSH32 0x8BE0079C531659141344CD1FD0A4F28419497F9722A3DAAFE3B4186F6B6457E0 PUSH1 0x40 MLOAD PUSH1 0x40 MLOAD DUP1 SWAP2 SUB SWAP1 LOG3 POP POP JUMP JUMPDEST PUSH2 0x127B DUP1 PUSH2 0x14E PUSH1 0x0 CODECOPY PUSH1 0x0 RETURN INVALID PUSH1 0x80 PUSH1 0x40 MSTORE PUSH1 0x4 CALLDATASIZE LT PUSH2 0x95 JUMPI PUSH1 0x0 CALLDATALOAD PUSH1 0xE0 SHR DUP1 PUSH4 0xA18F6FB5 GT PUSH2 0x59 JUMPI DUP1 PUSH4 0xA18F6FB5 EQ PUSH2 0x1CD JUMPI DUP1 PUSH4 0xC2081295 EQ PUSH2 0x1F6 JUMPI DUP1 PUSH4 0xEA0E2D6A EQ PUSH2 0x21F JUMPI DUP1 PUSH4 0xF2FDE38B EQ PUSH2 0x248 JUMPI DUP1 PUSH4 0xF7745A63 EQ PUSH2 0x271 JUMPI PUSH2 0x105 JUMP JUMPDEST DUP1 PUSH4 0x1EDBE00E EQ PUSH2 0x107 JUMPI DUP1 PUSH4 0x262F8E86 EQ PUSH2 0x123 JUMPI DUP1 PUSH4 0x715018A6 EQ PUSH2 0x160 JUMPI DUP1 PUSH4 0x7455BF54 EQ PUSH2 0x177 JUMPI DUP1 PUSH4 0x8DA5CB5B EQ PUSH2 0x1A2 JUMPI PUSH2 0x105 JUMP JUMPDEST CALLDATASIZE PUSH2 0x105 JUMPI PUSH1 0x1 PUSH1 0x0 SWAP1 SLOAD SWAP1 PUSH2 0x100 EXP SWAP1 DIV PUSH20 0xFFFFFFFFFFFFFFFFFFFFFFFFFFFFFFFFFFFFFFFF AND PUSH20 0xFFFFFFFFFFFFFFFFFFFFFFFFFFFFFFFFFFFFFFFF AND PUSH2 0x8FC CALLVALUE SWAP1 DUP2 ISZERO MUL SWAP1 PUSH1 0x40 MLOAD PUSH1 0x0 PUSH1 0x40 MLOAD DUP1 DUP4 SUB DUP2 DUP6 DUP9 DUP9 CALL SWAP4 POP POP POP POP ISZERO DUP1 ISZERO PUSH2 0x102 JUMPI RETURNDATASIZE PUSH1 0x0 DUP1 RETURNDATACOPY RETURNDATASIZE PUSH1 0x0 REVERT JUMPDEST POP STOP JUMPDEST STOP JUMPDEST PUSH2 0x121 PUSH1 0x4 DUP1 CALLDATASIZE SUB DUP2 ADD SWAP1 PUSH2 0x11C SWAP2 SWAP1 PUSH2 0xC17 JUMP JUMPDEST PUSH2 0x29A JUMP JUMPDEST STOP JUMPDEST CALLVALUE DUP1 ISZERO PUSH2 0x12F JUMPI PUSH1 0x0 DUP1 REVERT JUMPDEST POP PUSH2 0x14A PUSH1 0x4 DUP1 CALLDATASIZE SUB DUP2 ADD SWAP1 PUSH2 0x145 SWAP2 SWAP1 PUSH2 0xC7D JUMP JUMPDEST PUSH2 0x341 JUMP JUMPDEST PUSH1 0x40 MLOAD PUSH2 0x157 SWAP2 SWAP1 PUSH2 0xCEB JUMP JUMPDEST PUSH1 0x40 MLOAD DUP1 SWAP2 SUB SWAP1 RETURN JUMPDEST CALLVALUE DUP1 ISZERO PUSH2 0x16C JUMPI PUSH1 0x0 DUP1 REVERT JUMPDEST POP PUSH2 0x175 PUSH2 0x374 JUMP JUMPDEST STOP JUMPDEST CALLVALUE DUP1 ISZERO PUSH2 0x183 JUMPI PUSH1 0x0 DUP1 REVERT JUMPDEST POP PUSH2 0x18C PUSH2 0x388 JUMP JUMPDEST PUSH1 0x40 MLOAD PUSH2 0x199 SWAP2 SWAP1 PUSH2 0xCEB JUMP JUMPDEST PUSH1 0x40 MLOAD DUP1 SWAP2 SUB SWAP1 RETURN JUMPDEST CALLVALUE DUP1 ISZERO PUSH2 0x1AE JUMPI PUSH1 0x0 DUP1 REVERT JUMPDEST POP PUSH2 0x1B7 PUSH2 0x3AE JUMP JUMPDEST PUSH1 0x40 MLOAD PUSH2 0x1C4 SWAP2 SWAP1 PUSH2 0xCEB JUMP JUMPDEST PUSH1 0x40 MLOAD DUP1 SWAP2 SUB SWAP1 RETURN JUMPDEST CALLVALUE DUP1 ISZERO PUSH2 0x1D9 JUMPI PUSH1 0x0 DUP1 REVERT JUMPDEST POP PUSH2 0x1F4 PUSH1 0x4 DUP1 CALLDATASIZE SUB DUP2 ADD SWAP1 PUSH2 0x1EF SWAP2 SWAP1 PUSH2 0xD32 JUMP JUMPDEST PUSH2 0x3D7 JUMP JUMPDEST STOP JUMPDEST CALLVALUE DUP1 ISZERO PUSH2 0x202 JUMPI PUSH1 0x0 DUP1 REVERT JUMPDEST POP PUSH2 0x21D PUSH1 0x4 DUP1 CALLDATASIZE SUB DUP2 ADD SWAP1 PUSH2 0x218 SWAP2 SWAP1 PUSH2 0xD5F JUMP JUMPDEST PUSH2 0x493 JUMP JUMPDEST STOP JUMPDEST CALLVALUE DUP1 ISZERO PUSH2 0x22B JUMPI PUSH1 0x0 DUP1 REVERT JUMPDEST POP PUSH2 0x246 PUSH1 0x4 DUP1 CALLDATASIZE SUB DUP2 ADD SWAP1 PUSH2 0x241 SWAP2 SWAP1 PUSH2 0xC7D JUMP JUMPDEST PUSH2 0x4F7 JUMP JUMPDEST STOP JUMPDEST CALLVALUE DUP1 ISZERO PUSH2 0x254 JUMPI PUSH1 0x0 DUP1 REVERT JUMPDEST POP PUSH2 0x26F PUSH1 0x4 DUP1 CALLDATASIZE SUB DUP2 ADD SWAP1 PUSH2 0x26A SWAP2 SWAP1 PUSH2 0xD32 JUMP JUMPDEST PUSH2 0x728 JUMP JUMPDEST STOP JUMPDEST CALLVALUE DUP1 ISZERO PUSH2 0x27D JUMPI PUSH1 0x0 DUP1 REVERT JUMPDEST POP PUSH2 0x298 PUSH1 0x4 DUP1 CALLDATASIZE SUB DUP2 ADD SWAP1 PUSH2 0x293 SWAP2 SWAP1 PUSH2 0xDD5 JUMP JUMPDEST PUSH2 0x7AC JUMP JUMPDEST STOP JUMPDEST PUSH1 0x1 PUSH1 0x0 SWAP1 SLOAD SWAP1 PUSH2 0x100 EXP SWAP1 DIV PUSH20 0xFFFFFFFFFFFFFFFFFFFFFFFFFFFFFFFFFFFFFFFF AND PUSH20 0xFFFFFFFFFFFFFFFFFFFFFFFFFFFFFFFFFFFFFFFF AND PUSH2 0x8FC CALLVALUE SWAP1 DUP2 ISZERO MUL SWAP1 PUSH1 0x40 MLOAD PUSH1 0x0 PUSH1 0x40 MLOAD DUP1 DUP4 SUB DUP2 DUP6 DUP9 DUP9 CALL SWAP4 POP POP POP POP ISZERO DUP1 ISZERO PUSH2 0x302 JUMPI RETURNDATASIZE PUSH1 0x0 DUP1 RETURNDATACOPY RETURNDATASIZE PUSH1 0x0 REVERT JUMPDEST POP PUSH32 0xC8B771A21071ABADCD210F45830E9CE8DDC6D58123E705183271E1BEBF656C95 DUP2 CALLVALUE CALLER PUSH1 0x40 MLOAD PUSH2 0x336 SWAP4 SWAP3 SWAP2 SWAP1 PUSH2 0xE46 JUMP JUMPDEST PUSH1 0x40 MLOAD DUP1 SWAP2 SUB SWAP1 LOG1 POP JUMP JUMPDEST PUSH1 0x2 PUSH1 0x20 MSTORE DUP1 PUSH1 0x0 MSTORE PUSH1 0x40 PUSH1 0x0 KECCAK256 PUSH1 0x0 SWAP2 POP SLOAD SWAP1 PUSH2 0x100 EXP SWAP1 DIV PUSH20 0xFFFFFFFFFFFFFFFFFFFFFFFFFFFFFFFFFFFFFFFF AND DUP2 JUMP JUMPDEST PUSH2 0x37C PUSH2 0xA8E JUMP JUMPDEST PUSH2 0x386 PUSH1 0x0 PUSH2 0xB0C JUMP JUMPDEST JUMP JUMPDEST PUSH1 0x1 PUSH1 0x0 SWAP1 SLOAD SWAP1 PUSH2 0x100 EXP SWAP1 DIV PUSH20 0xFFFFFFFFFFFFFFFFFFFFFFFFFFFFFFFFFFFFFFFF AND DUP2 JUMP JUMPDEST PUSH1 0x0 DUP1 PUSH1 0x0 SWAP1 SLOAD SWAP1 PUSH2 0x100 EXP SWAP1 DIV PUSH20 0xFFFFFFFFFFFFFFFFFFFFFFFFFFFFFFFFFFFFFFFF AND SWAP1 POP SWAP1 JUMP JUMPDEST PUSH2 0x3DF PUSH2 0xA8E JUMP JUMPDEST PUSH1 0x0 PUSH20 0xFFFFFFFFFFFFFFFFFFFFFFFFFFFFFFFFFFFFFFFF AND DUP2 PUSH20 0xFFFFFFFFFFFFFFFFFFFFFFFFFFFFFFFFFFFFFFFF AND EQ ISZERO PUSH2 0x44F JUMPI PUSH1 0x40 MLOAD PUSH32 0x8C379A000000000000000000000000000000000000000000000000000000000 DUP2 MSTORE PUSH1 0x4 ADD PUSH2 0x446 SWAP1 PUSH2 0xEDA JUMP JUMPDEST PUSH1 0x40 MLOAD DUP1 SWAP2 SUB SWAP1 REVERT JUMPDEST DUP1 PUSH1 0x1 PUSH1 0x0 PUSH2 0x100 EXP DUP2 SLOAD DUP2 PUSH20 0xFFFFFFFFFFFFFFFFFFFFFFFFFFFFFFFFFFFFFFFF MUL NOT AND SWAP1 DUP4 PUSH20 0xFFFFFFFFFFFFFFFFFFFFFFFFFFFFFFFFFFFFFFFF AND MUL OR SWAP1 SSTORE POP POP JUMP JUMPDEST PUSH2 0x49B PUSH2 0xA8E JUMP JUMPDEST DUP1 PUSH1 0x2 PUSH1 0x0 DUP5 PUSH1 0xFF AND PUSH1 0xFF AND DUP2 MSTORE PUSH1 0x20 ADD SWAP1 DUP2 MSTORE PUSH1 0x20 ADD PUSH1 0x0 KECCAK256 PUSH1 0x0 PUSH2 0x100 EXP DUP2 SLOAD DUP2 PUSH20 0xFFFFFFFFFFFFFFFFFFFFFFFFFFFFFFFFFFFFFFFF MUL NOT AND SWAP1 DUP4 PUSH20 0xFFFFFFFFFFFFFFFFFFFFFFFFFFFFFFFFFFFFFFFF AND MUL OR SWAP1 SSTORE POP POP POP JUMP JUMPDEST PUSH2 0x4FF PUSH2 0xA8E JUMP JUMPDEST PUSH1 0x0 PUSH20 0xFFFFFFFFFFFFFFFFFFFFFFFFFFFFFFFFFFFFFFFF AND PUSH1 0x2 PUSH1 0x0 DUP4 PUSH1 0xFF AND PUSH1 0xFF AND DUP2 MSTORE PUSH1 0x20 ADD SWAP1 DUP2 MSTORE PUSH1 0x20 ADD PUSH1 0x0 KECCAK256 PUSH1 0x0 SWAP1 SLOAD SWAP1 PUSH2 0x100 EXP SWAP1 DIV PUSH20 0xFFFFFFFFFFFFFFFFFFFFFFFFFFFFFFFFFFFFFFFF AND PUSH20 0xFFFFFFFFFFFFFFFFFFFFFFFFFFFFFFFFFFFFFFFF AND EQ ISZERO PUSH2 0x5A8 JUMPI PUSH1 0x40 MLOAD PUSH32 0x8C379A000000000000000000000000000000000000000000000000000000000 DUP2 MSTORE PUSH1 0x4 ADD PUSH2 0x59F SWAP1 PUSH2 0xF46 JUMP JUMPDEST PUSH1 0x40 MLOAD DUP1 SWAP2 SUB SWAP1 REVERT JUMPDEST PUSH1 0x0 PUSH1 0x2 PUSH1 0x0 DUP4 PUSH1 0xFF AND PUSH1 0xFF AND DUP2 MSTORE PUSH1 0x20 ADD SWAP1 DUP2 MSTORE PUSH1 0x20 ADD PUSH1 0x0 KECCAK256 PUSH1 0x0 SWAP1 SLOAD SWAP1 PUSH2 0x100 EXP SWAP1 DIV PUSH20 0xFFFFFFFFFFFFFFFFFFFFFFFFFFFFFFFFFFFFFFFF AND SWAP1 POP PUSH1 0x0 DUP2 PUSH20 0xFFFFFFFFFFFFFFFFFFFFFFFFFFFFFFFFFFFFFFFF AND PUSH4 0x70A08231 ADDRESS PUSH1 0x40 MLOAD DUP3 PUSH4 0xFFFFFFFF AND PUSH1 0xE0 SHL DUP2 MSTORE PUSH1 0x4 ADD PUSH2 0x621 SWAP2 SWAP1 PUSH2 0xCEB JUMP JUMPDEST PUSH1 0x20 PUSH1 0x40 MLOAD DUP1 DUP4 SUB DUP2 DUP7 DUP1 EXTCODESIZE ISZERO DUP1 ISZERO PUSH2 0x639 JUMPI PUSH1 0x0 DUP1 REVERT JUMPDEST POP GAS STATICCALL ISZERO DUP1 ISZERO PUSH2 0x64D JUMPI RETURNDATASIZE PUSH1 0x0 DUP1 RETURNDATACOPY RETURNDATASIZE PUSH1 0x0 REVERT JUMPDEST POP POP POP POP PUSH1 0x40 MLOAD RETURNDATASIZE PUSH1 0x1F NOT PUSH1 0x1F DUP3 ADD AND DUP3 ADD DUP1 PUSH1 0x40 MSTORE POP DUP2 ADD SWAP1 PUSH2 0x671 SWAP2 SWAP1 PUSH2 0xF7B JUMP JUMPDEST SWAP1 POP DUP2 PUSH20 0xFFFFFFFFFFFFFFFFFFFFFFFFFFFFFFFFFFFFFFFF AND PUSH4 0xA9059CBB PUSH1 0x1 PUSH1 0x0 SWAP1 SLOAD SWAP1 PUSH2 0x100 EXP SWAP1 DIV PUSH20 0xFFFFFFFFFFFFFFFFFFFFFFFFFFFFFFFFFFFFFFFF AND DUP4 PUSH1 0x40 MLOAD DUP4 PUSH4 0xFFFFFFFF AND PUSH1 0xE0 SHL DUP2 MSTORE PUSH1 0x4 ADD PUSH2 0x6D0 SWAP3 SWAP2 SWAP1 PUSH2 0xFA8 JUMP JUMPDEST PUSH1 0x20 PUSH1 0x40 MLOAD DUP1 DUP4 SUB DUP2 PUSH1 0x0 DUP8 DUP1 EXTCODESIZE ISZERO DUP1 ISZERO PUSH2 0x6EA JUMPI PUSH1 0x0 DUP1 REVERT JUMPDEST POP GAS CALL ISZERO DUP1 ISZERO PUSH2 0x6FE JUMPI RETURNDATASIZE PUSH1 0x0 DUP1 RETURNDATACOPY RETURNDATASIZE PUSH1 0x0 REVERT JUMPDEST POP POP POP POP PUSH1 0x40 MLOAD RETURNDATASIZE PUSH1 0x1F NOT PUSH1 0x1F DUP3 ADD AND DUP3 ADD DUP1 PUSH1 0x40 MSTORE POP DUP2 ADD SWAP1 PUSH2 0x722 SWAP2 SWAP1 PUSH2 0x1009 JUMP JUMPDEST POP POP POP POP JUMP JUMPDEST PUSH2 0x730 PUSH2 0xA8E JUMP JUMPDEST PUSH1 0x0 PUSH20 0xFFFFFFFFFFFFFFFFFFFFFFFFFFFFFFFFFFFFFFFF AND DUP2 PUSH20 0xFFFFFFFFFFFFFFFFFFFFFFFFFFFFFFFFFFFFFFFF AND EQ ISZERO PUSH2 0x7A0 JUMPI PUSH1 0x40 MLOAD PUSH32 0x8C379A000000000000000000000000000000000000000000000000000000000 DUP2 MSTORE PUSH1 0x4 ADD PUSH2 0x797 SWAP1 PUSH2 0x10A8 JUMP JUMPDEST PUSH1 0x40 MLOAD DUP1 SWAP2 SUB SWAP1 REVERT JUMPDEST PUSH2 0x7A9 DUP2 PUSH2 0xB0C JUMP JUMPDEST POP JUMP JUMPDEST PUSH1 0x0 PUSH20 0xFFFFFFFFFFFFFFFFFFFFFFFFFFFFFFFFFFFFFFFF AND PUSH1 0x2 PUSH1 0x0 DUP6 PUSH1 0xFF AND PUSH1 0xFF AND DUP2 MSTORE PUSH1 0x20 ADD SWAP1 DUP2 MSTORE PUSH1 0x20 ADD PUSH1 0x0 KECCAK256 PUSH1 0x0 SWAP1 SLOAD SWAP1 PUSH2 0x100 EXP SWAP1 DIV PUSH20 0xFFFFFFFFFFFFFFFFFFFFFFFFFFFFFFFFFFFFFFFF AND PUSH20 0xFFFFFFFFFFFFFFFFFFFFFFFFFFFFFFFFFFFFFFFF AND EQ ISZERO PUSH2 0x855 JUMPI PUSH1 0x40 MLOAD PUSH32 0x8C379A000000000000000000000000000000000000000000000000000000000 DUP2 MSTORE PUSH1 0x4 ADD PUSH2 0x84C SWAP1 PUSH2 0xF46 JUMP JUMPDEST PUSH1 0x40 MLOAD DUP1 SWAP2 SUB SWAP1 REVERT JUMPDEST PUSH1 0x0 PUSH1 0x2 PUSH1 0x0 DUP6 PUSH1 0xFF AND PUSH1 0xFF AND DUP2 MSTORE PUSH1 0x20 ADD SWAP1 DUP2 MSTORE PUSH1 0x20 ADD PUSH1 0x0 KECCAK256 PUSH1 0x0 SWAP1 SLOAD SWAP1 PUSH2 0x100 EXP SWAP1 DIV PUSH20 0xFFFFFFFFFFFFFFFFFFFFFFFFFFFFFFFFFFFFFFFF AND SWAP1 POP DUP2 DUP2 PUSH20 0xFFFFFFFFFFFFFFFFFFFFFFFFFFFFFFFFFFFFFFFF AND PUSH4 0xDD62ED3E CALLER ADDRESS PUSH1 0x40 MLOAD DUP4 PUSH4 0xFFFFFFFF AND PUSH1 0xE0 SHL DUP2 MSTORE PUSH1 0x4 ADD PUSH2 0x8CF SWAP3 SWAP2 SWAP1 PUSH2 0x10C8 JUMP JUMPDEST PUSH1 0x20 PUSH1 0x40 MLOAD DUP1 DUP4 SUB DUP2 DUP7 DUP1 EXTCODESIZE ISZERO DUP1 ISZERO PUSH2 0x8E7 JUMPI PUSH1 0x0 DUP1 REVERT JUMPDEST POP GAS STATICCALL ISZERO DUP1 ISZERO PUSH2 0x8FB JUMPI RETURNDATASIZE PUSH1 0x0 DUP1 RETURNDATACOPY RETURNDATASIZE PUSH1 0x0 REVERT JUMPDEST POP POP POP POP PUSH1 0x40 MLOAD RETURNDATASIZE PUSH1 0x1F NOT PUSH1 0x1F DUP3 ADD AND DUP3 ADD DUP1 PUSH1 0x40 MSTORE POP DUP2 ADD SWAP1 PUSH2 0x91F SWAP2 SWAP1 PUSH2 0xF7B JUMP JUMPDEST LT ISZERO PUSH2 0x960 JUMPI PUSH1 0x40 MLOAD PUSH32 0x8C379A000000000000000000000000000000000000000000000000000000000 DUP2 MSTORE PUSH1 0x4 ADD PUSH2 0x957 SWAP1 PUSH2 0x113D JUMP JUMPDEST PUSH1 0x40 MLOAD DUP1 SWAP2 SUB SWAP1 REVERT JUMPDEST DUP1 PUSH20 0xFFFFFFFFFFFFFFFFFFFFFFFFFFFFFFFFFFFFFFFF AND PUSH4 0x23B872DD CALLER PUSH1 0x1 PUSH1 0x0 SWAP1 SLOAD SWAP1 PUSH2 0x100 EXP SWAP1 DIV PUSH20 0xFFFFFFFFFFFFFFFFFFFFFFFFFFFFFFFFFFFFFFFF AND DUP6 PUSH1 0x40 MLOAD DUP5 PUSH4 0xFFFFFFFF AND PUSH1 0xE0 SHL DUP2 MSTORE PUSH1 0x4 ADD PUSH2 0x9BF SWAP4 SWAP3 SWAP2 SWAP1 PUSH2 0x115D JUMP JUMPDEST PUSH1 0x20 PUSH1 0x40 MLOAD DUP1 DUP4 SUB DUP2 PUSH1 0x0 DUP8 DUP1 EXTCODESIZE ISZERO DUP1 ISZERO PUSH2 0x9D9 JUMPI PUSH1 0x0 DUP1 REVERT JUMPDEST POP GAS CALL ISZERO DUP1 ISZERO PUSH2 0x9ED JUMPI RETURNDATASIZE PUSH1 0x0 DUP1 RETURNDATACOPY RETURNDATASIZE PUSH1 0x0 REVERT JUMPDEST POP POP POP POP PUSH1 0x40 MLOAD RETURNDATASIZE PUSH1 0x1F NOT PUSH1 0x1F DUP3 ADD AND DUP3 ADD DUP1 PUSH1 0x40 MSTORE POP DUP2 ADD SWAP1 PUSH2 0xA11 SWAP2 SWAP1 PUSH2 0x1009 JUMP JUMPDEST POP PUSH32 0x72C1E167858816E025E7A4E646CDED5DF40001001B8EA94E59272B63321EF8FD DUP4 PUSH1 0x2 PUSH1 0x0 DUP8 PUSH1 0xFF AND PUSH1 0xFF AND DUP2 MSTORE PUSH1 0x20 ADD SWAP1 DUP2 MSTORE PUSH1 0x20 ADD PUSH1 0x0 KECCAK256 PUSH1 0x0 SWAP1 SLOAD SWAP1 PUSH2 0x100 EXP SWAP1 DIV PUSH20 0xFFFFFFFFFFFFFFFFFFFFFFFFFFFFFFFFFFFFFFFF AND DUP5 CALLER PUSH1 0x40 MLOAD PUSH2 0xA80 SWAP5 SWAP4 SWAP3 SWAP2 SWAP1 PUSH2 0x1194 JUMP JUMPDEST PUSH1 0x40 MLOAD DUP1 SWAP2 SUB SWAP1 LOG1 POP POP POP POP JUMP JUMPDEST PUSH2 0xA96 PUSH2 0xBD0 JUMP JUMPDEST PUSH20 0xFFFFFFFFFFFFFFFFFFFFFFFFFFFFFFFFFFFFFFFF AND PUSH2 0xAB4 PUSH2 0x3AE JUMP JUMPDEST PUSH20 0xFFFFFFFFFFFFFFFFFFFFFFFFFFFFFFFFFFFFFFFF AND EQ PUSH2 0xB0A JUMPI PUSH1 0x40 MLOAD PUSH32 0x8C379A000000000000000000000000000000000000000000000000000000000 DUP2 MSTORE PUSH1 0x4 ADD PUSH2 0xB01 SWAP1 PUSH2 0x1225 JUMP JUMPDEST PUSH1 0x40 MLOAD DUP1 SWAP2 SUB SWAP1 REVERT JUMPDEST JUMP JUMPDEST PUSH1 0x0 DUP1 PUSH1 0x0 SWAP1 SLOAD SWAP1 PUSH2 0x100 EXP SWAP1 DIV PUSH20 0xFFFFFFFFFFFFFFFFFFFFFFFFFFFFFFFFFFFFFFFF AND SWAP1 POP DUP2 PUSH1 0x0 DUP1 PUSH2 0x100 EXP DUP2 SLOAD DUP2 PUSH20 0xFFFFFFFFFFFFFFFFFFFFFFFFFFFFFFFFFFFFFFFF MUL NOT AND SWAP1 DUP4 PUSH20 0xFFFFFFFFFFFFFFFFFFFFFFFFFFFFFFFFFFFFFFFF AND MUL OR SWAP1 SSTORE POP DUP2 PUSH20 0xFFFFFFFFFFFFFFFFFFFFFFFFFFFFFFFFFFFFFFFF AND DUP2 PUSH20 0xFFFFFFFFFFFFFFFFFFFFFFFFFFFFFFFFFFFFFFFF AND PUSH32 0x8BE0079C531659141344CD1FD0A4F28419497F9722A3DAAFE3B4186F6B6457E0 PUSH1 0x40 MLOAD PUSH1 0x40 MLOAD DUP1 SWAP2 SUB SWAP1 LOG3 POP POP JUMP JUMPDEST PUSH1 0x0 CALLER SWAP1 POP SWAP1 JUMP JUMPDEST PUSH1 0x0 DUP1 REVERT JUMPDEST PUSH1 0x0 PUSH2 0xFFFF DUP3 AND SWAP1 POP SWAP2 SWAP1 POP JUMP JUMPDEST PUSH2 0xBF4 DUP2 PUSH2 0xBDD JUMP JUMPDEST DUP2 EQ PUSH2 0xBFF JUMPI PUSH1 0x0 DUP1 REVERT JUMPDEST POP JUMP JUMPDEST PUSH1 0x0 DUP2 CALLDATALOAD SWAP1 POP PUSH2 0xC11 DUP2 PUSH2 0xBEB JUMP JUMPDEST SWAP3 SWAP2 POP POP JUMP JUMPDEST PUSH1 0x0 PUSH1 0x20 DUP3 DUP5 SUB SLT ISZERO PUSH2 0xC2D JUMPI PUSH2 0xC2C PUSH2 0xBD8 JUMP JUMPDEST JUMPDEST PUSH1 0x0 PUSH2 0xC3B DUP5 DUP3 DUP6 ADD PUSH2 0xC02 JUMP JUMPDEST SWAP2 POP POP SWAP3 SWAP2 POP POP JUMP JUMPDEST PUSH1 0x0 PUSH1 0xFF DUP3 AND SWAP1 POP SWAP2 SWAP1 POP JUMP JUMPDEST PUSH2 0xC5A DUP2 PUSH2 0xC44 JUMP JUMPDEST DUP2 EQ PUSH2 0xC65 JUMPI PUSH1 0x0 DUP1 REVERT JUMPDEST POP JUMP JUMPDEST PUSH1 0x0 DUP2 CALLDATALOAD SWAP1 POP PUSH2 0xC77 DUP2 PUSH2 0xC51 JUMP JUMPDEST SWAP3 SWAP2 POP POP JUMP JUMPDEST PUSH1 0x0 PUSH1 0x20 DUP3 DUP5 SUB SLT ISZERO PUSH2 0xC93 JUMPI PUSH2 0xC92 PUSH2 0xBD8 JUMP JUMPDEST JUMPDEST PUSH1 0x0 PUSH2 0xCA1 DUP5 DUP3 DUP6 ADD PUSH2 0xC68 JUMP JUMPDEST SWAP2 POP POP SWAP3 SWAP2 POP POP JUMP JUMPDEST PUSH1 0x0 PUSH20 0xFFFFFFFFFFFFFFFFFFFFFFFFFFFFFFFFFFFFFFFF DUP3 AND SWAP1 POP SWAP2 SWAP1 POP JUMP JUMPDEST PUSH1 0x0 PUSH2 0xCD5 DUP3 PUSH2 0xCAA JUMP JUMPDEST SWAP1 POP SWAP2 SWAP1 POP JUMP JUMPDEST PUSH2 0xCE5 DUP2 PUSH2 0xCCA JUMP JUMPDEST DUP3 MSTORE POP POP JUMP JUMPDEST PUSH1 0x0 PUSH1 0x20 DUP3 ADD SWAP1 POP PUSH2 0xD00 PUSH1 0x0 DUP4 ADD DUP5 PUSH2 0xCDC JUMP JUMPDEST SWAP3 SWAP2 POP POP JUMP JUMPDEST PUSH2 0xD0F DUP2 PUSH2 0xCCA JUMP JUMPDEST DUP2 EQ PUSH2 0xD1A JUMPI PUSH1 0x0 DUP1 REVERT JUMPDEST POP JUMP JUMPDEST PUSH1 0x0 DUP2 CALLDATALOAD SWAP1 POP PUSH2 0xD2C DUP2 PUSH2 0xD06 JUMP JUMPDEST SWAP3 SWAP2 POP POP JUMP JUMPDEST PUSH1 0x0 PUSH1 0x20 DUP3 DUP5 SUB SLT ISZERO PUSH2 0xD48 JUMPI PUSH2 0xD47 PUSH2 0xBD8 JUMP JUMPDEST JUMPDEST PUSH1 0x0 PUSH2 0xD56 DUP5 DUP3 DUP6 ADD PUSH2 0xD1D JUMP JUMPDEST SWAP2 POP POP SWAP3 SWAP2 POP POP JUMP JUMPDEST PUSH1 0x0 DUP1 PUSH1 0x40 DUP4 DUP6 SUB SLT ISZERO PUSH2 0xD76 JUMPI PUSH2 0xD75 PUSH2 0xBD8 JUMP JUMPDEST JUMPDEST PUSH1 0x0 PUSH2 0xD84 DUP6 DUP3 DUP7 ADD PUSH2 0xC68 JUMP JUMPDEST SWAP3 POP POP PUSH1 0x20 PUSH2 0xD95 DUP6 DUP3 DUP7 ADD PUSH2 0xD1D JUMP JUMPDEST SWAP2 POP POP SWAP3 POP SWAP3 SWAP1 POP JUMP JUMPDEST PUSH1 0x0 DUP2 SWAP1 POP SWAP2 SWAP1 POP JUMP JUMPDEST PUSH2 0xDB2 DUP2 PUSH2 0xD9F JUMP JUMPDEST DUP2 EQ PUSH2 0xDBD JUMPI PUSH1 0x0 DUP1 REVERT JUMPDEST POP JUMP JUMPDEST PUSH1 0x0 DUP2 CALLDATALOAD SWAP1 POP PUSH2 0xDCF DUP2 PUSH2 0xDA9 JUMP JUMPDEST SWAP3 SWAP2 POP POP JUMP JUMPDEST PUSH1 0x0 DUP1 PUSH1 0x0 PUSH1 0x60 DUP5 DUP7 SUB SLT ISZERO PUSH2 0xDEE JUMPI PUSH2 0xDED PUSH2 0xBD8 JUMP JUMPDEST JUMPDEST PUSH1 0x0 PUSH2 0xDFC DUP7 DUP3 DUP8 ADD PUSH2 0xC68 JUMP JUMPDEST SWAP4 POP POP PUSH1 0x20 PUSH2 0xE0D DUP7 DUP3 DUP8 ADD PUSH2 0xC02 JUMP JUMPDEST SWAP3 POP POP PUSH1 0x40 PUSH2 0xE1E DUP7 DUP3 DUP8 ADD PUSH2 0xDC0 JUMP JUMPDEST SWAP2 POP POP SWAP3 POP SWAP3 POP SWAP3 JUMP JUMPDEST PUSH2 0xE31 DUP2 PUSH2 0xBDD JUMP JUMPDEST DUP3 MSTORE POP POP JUMP JUMPDEST PUSH2 0xE40 DUP2 PUSH2 0xD9F JUMP JUMPDEST DUP3 MSTORE POP POP JUMP JUMPDEST PUSH1 0x0 PUSH1 0x60 DUP3 ADD SWAP1 POP PUSH2 0xE5B PUSH1 0x0 DUP4 ADD DUP7 PUSH2 0xE28 JUMP JUMPDEST PUSH2 0xE68 PUSH1 0x20 DUP4 ADD DUP6 PUSH2 0xE37 JUMP JUMPDEST PUSH2 0xE75 PUSH1 0x40 DUP4 ADD DUP5 PUSH2 0xCDC JUMP JUMPDEST SWAP5 SWAP4 POP POP POP POP JUMP JUMPDEST PUSH1 0x0 DUP3 DUP3 MSTORE PUSH1 0x20 DUP3 ADD SWAP1 POP SWAP3 SWAP2 POP POP JUMP JUMPDEST PUSH32 0x496E76616C696420616464726573730000000000000000000000000000000000 PUSH1 0x0 DUP3 ADD MSTORE POP JUMP JUMPDEST PUSH1 0x0 PUSH2 0xEC4 PUSH1 0xF DUP4 PUSH2 0xE7D JUMP JUMPDEST SWAP2 POP PUSH2 0xECF DUP3 PUSH2 0xE8E JUMP JUMPDEST PUSH1 0x20 DUP3 ADD SWAP1 POP SWAP2 SWAP1 POP JUMP JUMPDEST PUSH1 0x0 PUSH1 0x20 DUP3 ADD SWAP1 POP DUP2 DUP2 SUB PUSH1 0x0 DUP4 ADD MSTORE PUSH2 0xEF3 DUP2 PUSH2 0xEB7 JUMP JUMPDEST SWAP1 POP SWAP2 SWAP1 POP JUMP JUMPDEST PUSH32 0x4572726F7220737461626C6520636F696E206964000000000000000000000000 PUSH1 0x0 DUP3 ADD MSTORE POP JUMP JUMPDEST PUSH1 0x0 PUSH2 0xF30 PUSH1 0x14 DUP4 PUSH2 0xE7D JUMP JUMPDEST SWAP2 POP PUSH2 0xF3B DUP3 PUSH2 0xEFA JUMP JUMPDEST PUSH1 0x20 DUP3 ADD SWAP1 POP SWAP2 SWAP1 POP JUMP JUMPDEST PUSH1 0x0 PUSH1 0x20 DUP3 ADD SWAP1 POP DUP2 DUP2 SUB PUSH1 0x0 DUP4 ADD MSTORE PUSH2 0xF5F DUP2 PUSH2 0xF23 JUMP JUMPDEST SWAP1 POP SWAP2 SWAP1 POP JUMP JUMPDEST PUSH1 0x0 DUP2 MLOAD SWAP1 POP PUSH2 0xF75 DUP2 PUSH2 0xDA9 JUMP JUMPDEST SWAP3 SWAP2 POP POP JUMP JUMPDEST PUSH1 0x0 PUSH1 0x20 DUP3 DUP5 SUB SLT ISZERO PUSH2 0xF91 JUMPI PUSH2 0xF90 PUSH2 0xBD8 JUMP JUMPDEST JUMPDEST PUSH1 0x0 PUSH2 0xF9F DUP5 DUP3 DUP6 ADD PUSH2 0xF66 JUMP JUMPDEST SWAP2 POP POP SWAP3 SWAP2 POP POP JUMP JUMPDEST PUSH1 0x0 PUSH1 0x40 DUP3 ADD SWAP1 POP PUSH2 0xFBD PUSH1 0x0 DUP4 ADD DUP6 PUSH2 0xCDC JUMP JUMPDEST PUSH2 0xFCA PUSH1 0x20 DUP4 ADD DUP5 PUSH2 0xE37 JUMP JUMPDEST SWAP4 SWAP3 POP POP POP JUMP JUMPDEST PUSH1 0x0 DUP2 ISZERO ISZERO SWAP1 POP SWAP2 SWAP1 POP JUMP JUMPDEST PUSH2 0xFE6 DUP2 PUSH2 0xFD1 JUMP JUMPDEST DUP2 EQ PUSH2 0xFF1 JUMPI PUSH1 0x0 DUP1 REVERT JUMPDEST POP JUMP JUMPDEST PUSH1 0x0 DUP2 MLOAD SWAP1 POP PUSH2 0x1003 DUP2 PUSH2 0xFDD JUMP JUMPDEST SWAP3 SWAP2 POP POP JUMP JUMPDEST PUSH1 0x0 PUSH1 0x20 DUP3 DUP5 SUB SLT ISZERO PUSH2 0x101F JUMPI PUSH2 0x101E PUSH2 0xBD8 JUMP JUMPDEST JUMPDEST PUSH1 0x0 PUSH2 0x102D DUP5 DUP3 DUP6 ADD PUSH2 0xFF4 JUMP JUMPDEST SWAP2 POP POP SWAP3 SWAP2 POP POP JUMP JUMPDEST PUSH32 0x4F776E61626C653A206E6577206F776E657220697320746865207A65726F2061 PUSH1 0x0 DUP3 ADD MSTORE PUSH32 0x6464726573730000000000000000000000000000000000000000000000000000 PUSH1 0x20 DUP3 ADD MSTORE POP JUMP JUMPDEST PUSH1 0x0 PUSH2 0x1092 PUSH1 0x26 DUP4 PUSH2 0xE7D JUMP JUMPDEST SWAP2 POP PUSH2 0x109D DUP3 PUSH2 0x1036 JUMP JUMPDEST PUSH1 0x40 DUP3 ADD SWAP1 POP SWAP2 SWAP1 POP JUMP JUMPDEST PUSH1 0x0 PUSH1 0x20 DUP3 ADD SWAP1 POP DUP2 DUP2 SUB PUSH1 0x0 DUP4 ADD MSTORE PUSH2 0x10C1 DUP2 PUSH2 0x1085 JUMP JUMPDEST SWAP1 POP SWAP2 SWAP1 POP JUMP JUMPDEST PUSH1 0x0 PUSH1 0x40 DUP3 ADD SWAP1 POP PUSH2 0x10DD PUSH1 0x0 DUP4 ADD DUP6 PUSH2 0xCDC JUMP JUMPDEST PUSH2 0x10EA PUSH1 0x20 DUP4 ADD DUP5 PUSH2 0xCDC JUMP JUMPDEST SWAP4 SWAP3 POP POP POP JUMP JUMPDEST PUSH32 0x4572726F7220616C6C6F77616E63650000000000000000000000000000000000 PUSH1 0x0 DUP3 ADD MSTORE POP JUMP JUMPDEST PUSH1 0x0 PUSH2 0x1127 PUSH1 0xF DUP4 PUSH2 0xE7D JUMP JUMPDEST SWAP2 POP PUSH2 0x1132 DUP3 PUSH2 0x10F1 JUMP JUMPDEST PUSH1 0x20 DUP3 ADD SWAP1 POP SWAP2 SWAP1 POP JUMP JUMPDEST PUSH1 0x0 PUSH1 0x20 DUP3 ADD SWAP1 POP DUP2 DUP2 SUB PUSH1 0x0 DUP4 ADD MSTORE PUSH2 0x1156 DUP2 PUSH2 0x111A JUMP JUMPDEST SWAP1 POP SWAP2 SWAP1 POP JUMP JUMPDEST PUSH1 0x0 PUSH1 0x60 DUP3 ADD SWAP1 POP PUSH2 0x1172 PUSH1 0x0 DUP4 ADD DUP7 PUSH2 0xCDC JUMP JUMPDEST PUSH2 0x117F PUSH1 0x20 DUP4 ADD DUP6 PUSH2 0xCDC JUMP JUMPDEST PUSH2 0x118C PUSH1 0x40 DUP4 ADD DUP5 PUSH2 0xE37 JUMP JUMPDEST SWAP5 SWAP4 POP POP POP POP JUMP JUMPDEST PUSH1 0x0 PUSH1 0x80 DUP3 ADD SWAP1 POP PUSH2 0x11A9 PUSH1 0x0 DUP4 ADD DUP8 PUSH2 0xE28 JUMP JUMPDEST PUSH2 0x11B6 PUSH1 0x20 DUP4 ADD DUP7 PUSH2 0xCDC JUMP JUMPDEST PUSH2 0x11C3 PUSH1 0x40 DUP4 ADD DUP6 PUSH2 0xE37 JUMP JUMPDEST PUSH2 0x11D0 PUSH1 0x60 DUP4 ADD DUP5 PUSH2 0xCDC JUMP JUMPDEST SWAP6 SWAP5 POP POP POP POP POP JUMP JUMPDEST PUSH32 0x4F776E61626C653A2063616C6C6572206973206E6F7420746865206F776E6572 PUSH1 0x0 DUP3 ADD MSTORE POP JUMP JUMPDEST PUSH1 0x0 PUSH2 0x120F PUSH1 0x20 DUP4 PUSH2 0xE7D JUMP JUMPDEST SWAP2 POP PUSH2 0x121A DUP3 PUSH2 0x11D9 JUMP JUMPDEST PUSH1 0x20 DUP3 ADD SWAP1 POP SWAP2 SWAP1 POP JUMP JUMPDEST PUSH1 0x0 PUSH1 0x20 DUP3 ADD SWAP1 POP DUP2 DUP2 SUB PUSH1 0x0 DUP4 ADD MSTORE PUSH2 0x123E DUP2 PUSH2 0x1202 JUMP JUMPDEST SWAP1 POP SWAP2 SWAP1 POP JUMP INVALID LOG2 PUSH5 0x6970667358 0x22 SLT KECCAK256 0xD7 SELFBALANCE 0x5C CHAINID 0xD3 PUSH9 0xAD6CF7845B4135DE64 DUP2 SWAP10 NUMBER 0xE2 0xDE 0x2F 0xB6 MSTORE 0x23 BLOCKHASH PUSH17 0xA1982581734A64736F6C63430008090033 "
				},
				"gasEstimates": {
					"creation": {
						"codeDepositCost": "946200",
						"executionCost": "infinite",
						"totalCost": "infinite"
					},
					"external": {
						"": "196",
						"centralWallet()": "2581",
						"emergencyTokenWithdraw(uint8)": "infinite",
						"owner()": "2611",
						"renounceOwnership()": "30443",
						"setupStableCoin(uint8,address)": "27277",
						"stableCoins(uint8)": "2868",
						"transferNative(uint16)": "infinite",
						"transferOwnership(address)": "30813",
						"transferStableCoin(uint8,uint16,uint256)": "infinite",
						"updateCentralWallet(address)": "27024"
					}
				},
				"methodIdentifiers": {
					"centralWallet()": "7455bf54",
					"emergencyTokenWithdraw(uint8)": "ea0e2d6a",
					"owner()": "8da5cb5b",
					"renounceOwnership()": "715018a6",
					"setupStableCoin(uint8,address)": "c2081295",
					"stableCoins(uint8)": "262f8e86",
					"transferNative(uint16)": "1edbe00e",
					"transferOwnership(address)": "f2fde38b",
					"transferStableCoin(uint8,uint16,uint256)": "f7745a63",
					"updateCentralWallet(address)": "a18f6fb5"
				}
			},
			"storageLayout": {
				"storage": [
					{
						"astId": 7,
						"contract": "contracts/OrderProvider.sol:OrderProvider",
						"label": "_owner",
						"offset": 0,
						"slot": "0",
						"type": "t_address"
					},
					{
						"astId": 238,
						"contract": "contracts/OrderProvider.sol:OrderProvider",
						"label": "centralWallet",
						"offset": 0,
						"slot": "1",
						"type": "t_address"
					},
					{
						"astId": 242,
						"contract": "contracts/OrderProvider.sol:OrderProvider",
						"label": "stableCoins",
						"offset": 0,
						"slot": "2",
						"type": "t_mapping(t_uint8,t_address)"
					}
				],
				"types": {
					"t_address": {
						"encoding": "inplace",
						"label": "address",
						"numberOfBytes": "20"
					},
					"t_mapping(t_uint8,t_address)": {
						"encoding": "mapping",
						"key": "t_uint8",
						"label": "mapping(uint8 => address)",
						"numberOfBytes": "32",
						"value": "t_address"
					},
					"t_uint8": {
						"encoding": "inplace",
						"label": "uint8",
						"numberOfBytes": "1"
					}
				}
			},
			"userdoc": {
				"kind": "user",
				"methods": {},
				"version": 1
			}
		}
	}
}